:100000000C942A000C9447000C9447000C94470071
:100010000C9447000C9447000C9447000C94470044
:100020000C9447000C9447000C9447000C946B010F
:100030000C9447000C9447000C9447000C94470024
:100040000C9447000C9447000C9447000C94470014
:100050000C94470011241FBECFE5D8E0DEBFCDBF12
:1000600011E0A0E6B0E0E4E8F9E002C005900D92EE
:10007000A438B107D9F721E0A4E8B1E001C01D928E
:10008000AA38B207E1F70E9470000C94C0040C94E7
:100090000000CF93C82F8A3019F48DE00E944900E8
:1000A0005D9BFECFCCB980E090E0CF9108955F9B3F
:1000B000FECF8CB190E0089581E087BB8EEF88BBC6
:1000C000089510BC8CE089B98AB188618AB9599ABF
:1000D000089584E083BF82EB82BF81E089BF0895E9
:1000E0000E945C000E9461000E946900E4E8F1E067
:1000F0008EE690E09383828380E690E09183808314
:1001000078948DE090E00E94EE018DE790E09F935F
:100110008F93CFEED0E0DF93CF930E94D80108E910
:1001200010E01F930F93DF93CF930E94D80184EBCD
:1001300090E09F938F93DF93CF930E94D8011F93FA
:100140000F93DF93CF930E94D801EDB7FEB770965F
:100150000FB6F894FEBF0FBEEDBF00ED10E00F2EFE
:10016000F4E8CF2EF1E0DF2EF02D0F2EF5E6EF2E86
:10017000F1E0FF2EF02D0F2EF8E18F2EF1E09F2EF3
:10018000F02D0F2EFBE42F2EF1E03F2EF02D0F2E41
:10019000FDEE6F2EF0E07F2EF02D1F930F93DF9377
:1001A000CF930E94D801F601808191810E949A012B
:1001B000582E0F900F900F900F905C9981C05B9913
:1001C0007FC05A997DC0482E082E000C990BC0970D
:1001D0000A97A8F481EE90E09F938F93852D052CCC
:1001E000000C990B9F935F927F926F920E94D801AF
:1001F0000F900F900F900F900F900F9019C0A52C9B
:10020000052C000CBB08C5010E949201892B81F0CE
:1002100083EF90E09F938F93BF925F927F926F9254
:100220000E94D8010F900F900F900F900F900F9099
:10023000FDE04F1621F020E24216A1F026C08FEF1C
:1002400090E09F938F93DF93CF930E94D8019F926A
:100250008F920E94D8010F900F900F900F900F90E7
:100260000F909BCF82E391E09F938F93DF93CF9387
:100270000E94D8019F928F920E94D8010F900F90F8
:100280000F900F900F900F9088CF852D052C000CAC
:10029000990B9F935F923F922F928FE591E09F93EE
:1002A0008F930E94D8019F928F920E94D8018DB7A0
:1002B0009EB708960FB6F8949EBF0FBE8DBF6DCF48
:1002C000FF92EF92DF93CF930E94D8010F900F908F
:1002D0000F900F9062CF1F920F920FB60F921124C2
:1002E0002F938F939F939FB782EB82BF80917C0067
:1002F000815080937C0080917C00811107C08AE04E
:1003000080937C0028B381E0822788BB9FBF9F91A8
:100310008F912F910F900FBE0F901F90189585FD14
:100320000C94D603806291110C94D60381568A51A5
:10033000D8F70895CF93DF93EC012B8120FF33C0D2
:1003400026FF0AC02F7B2B838E819F8101969F837E
:100350008E838A8190E029C022FF0FC0E881F98155
:100360008081082E000C990B009719F420622B83D2
:100370001AC03196F983E8830EC0EA85FB8509959A
:1003800097FF09C02B81019611F080E201C080E146
:10039000822B8B8308C02E813F812F5F3F4F3F838D
:1003A0002E83992702C08FEF9FEFDF91CF910895A1
:1003B000A0E0B0E0EEEDF1E00C949904AE014B5FEB
:1003C0005F4FFA0161917191AF0180918601909127
:1003D00087010E94F501E2E00C94B504609186016A
:1003E000709187010E94EF030895ABE0B0E0EBEF5E
:1003F000F1E00C9489046C017B018A01FC011782F5
:100400001682838181FFCCC1CE0101963C01F601A9
:100410009381F70193FD859193FF81917F0188235B
:1004200009F4BAC1853239F493FD859193FF819126
:100430007F01853229F4B60190E00E94EF03E7CFF7
:10044000912C212C312CFFE1F315D8F08B3279F06F
:1004500038F4803279F08332A1F4232D20611DC05D
:100460008D3261F0803369F4232D216016C0832D15
:100470008260382EE32DE4603E2E2AC0F32DF86012
:100480001DC037FC2DC020ED280F2A3040F08E32E1
:10049000B9F436FC81C1232D2064322E19C036FEFA
:1004A00006C08AE0989E200D1124922E11C0EAE029
:1004B0002E9E200D1124222EF32DF0623F2E08C017
:1004C0008C3621F4832D8068382E02C0883641F4A2
:1004D000F70193FD859193FF81917F018111B3CF46
:1004E000982F9F7D9554933028F40C5F1F4F9FE306
:1004F00099830DC0833631F0833771F0833509F06D
:1005000059C021C0F801808189830E5F1F4F882464
:100510008394912C530113C02801F2E04F0E511C1B
:10052000F801A080B18036FE03C0692D70E002C0E2
:100530006FEF7FEFC5010E94E4034C018201F32DB0
:10054000FF773F2E16C0280122E0420E511CF80111
:10055000A080B18036FE03C0692D70E002C06FEF4D
:100560007FEFC5010E94D9034C01F32DF0683F2EA7
:10057000820133FC1BC0822D90E088169906B0F4EE
:10058000B60180E290E00E94EF032A94F4CFF501D7
:1005900037FC859137FE81915F01B60190E00E94A2
:1005A000EF0321102A9421E0821A9108811491040A
:1005B00071F7E8C0843611F0893641F5F80137FE4D
:1005C00007C060817181828193810C5F1F4F08C0D9
:1005D00060817181072E000C880B990B0E5F1F4FF5
:1005E000F32DFF763F2E97FF09C09095809570956B
:1005F00061957F4F8F4F9F4FF0683F2E2AE030E08C
:10060000A3010E942B04882E861845C0853731F43B
:10061000232D2F7EB22E2AE030E025C0932D997F26
:10062000B92E8F36C1F018F4883579F0B5C080370F
:1006300019F0883721F0B0C0E92FE061BE2EB4FE7A
:100640000DC0FB2DF460BF2E09C034FE0AC0292F57
:100650002660B22E06C028E030E005C020E130E080
:1006600002C020E132E0F801B7FE07C0608171816D
:10067000828193810C5F1F4F06C06081718180E091
:1006800090E00E5F1F4FA3010E942B04882E861856
:10069000FB2DFF773F2E36FE0DC0232D2E7FA22E81
:1006A000891458F434FE0BC032FC09C0832D8E7EB1
:1006B000A82E05C0B82CA32C03C0B82C01C0B92C9F
:1006C000A4FE0FC0FE01E80DF11D8081803321F4EE
:1006D0009A2D997EA92E09C0A2FE06C0B394B394A8
:1006E00004C08A2D867809F0B394A3FC11C0A0FE43
:1006F00006C0B21488F4280C922C9B180EC0B214B9
:1007000060F4B60180E290E00E94EF03B394F7CF6B
:10071000B21418F42B1802C0982C212CA4FE10C07F
:10072000B60180E390E00E94EF03A2FE17C0A1FC97
:1007300003C088E790E002C088E590E0B6010CC0F5
:100740008A2D867859F0A1FE02C08BE201C080E2BA
:10075000A7FC8DE2B60190E00E94EF03891438F403
:10076000B60180E390E00E94EF039A94F7CF8A9459
:10077000F301E80DF11D8081B60190E00E94EF03C6
:100780008110F5CF222009F442CEB60180E290E03C
:100790000E94EF032A94F6CFF6018681978102C06A
:1007A0008FEF9FEF2B96E2E10C94A5049927882701
:1007B0000895FC010590615070400110D8F78095B4
:1007C00090958E0F9F1F0895FC016150704001901D
:1007D0000110D8F7809590958E0F9F1F08950F9365
:1007E0001F93CF93DF93FB01238121FD03C08FEF84
:1007F0009FEF2CC022FF16C046815781248135818E
:100800004217530744F4A081B1819D012F5F3F4FF0
:10081000318320838C93268137812F5F3F4F37832D
:10082000268314C08B01EC01FB010084F185E02DCF
:100830000995892BE1F6D80116968D919C91179711
:10084000019617969C938E931697CE01DF91CF91C8
:100850001F910F910895FA01AA27283051F12031F4
:1008600081F1E8946F936E7F6E5F7F4F8F4F9F4F44
:10087000AF4FB1E03ED0B4E03CD0670F781F891F86
:100880009A1FA11D680F791F8A1F911DA11D6A0F54
:10089000711D811D911DA11D20D009F468943F9107
:1008A0002AE0269F11243019305D3193DEF6CF0106
:1008B0000895462F4770405D4193B3E00FD0C9F7CC
:1008C000F6CF462F4F70405D4A3318F0495D31FD39
:1008D0004052419302D0A9F7EACFB4E0A69597958C
:1008E000879577956795BA95C9F700976105710562
:1008F00008959B01AC010A2E0694579547953795AC
:100900002795BA95C9F7620F731F841F951FA01D05
:1009100008952F923F924F925F926F927F928F92A3
:100920009F92AF92BF92CF92DF92EF92FF920F937E
:100930001F93CF93DF93CDB7DEB7CA1BDB0B0FB688
:10094000F894DEBF0FBECDBF09942A883988488845
:100950005F846E847D848C849B84AA84B984C884DB
:10096000DF80EE80FD800C811B81AA81B981CE0FD2
:10097000D11D0FB6F894DEBF0FBECDBFED010895B7
:04098000F894FFCF19
:10098400000000010000000000005700000000000B
:100994000002000000004900000000000A52656CDB
:1009A400656173652076657273696F6E2069732063
:1009B40072756E6E696E67002D2D2D2D2D2D2D2DCA
:1009C4002D2D2D2D2D2D2D2D2D2D2D2D2D2D2D2D53
:1009D4002D2D2D002B2020202020204563686F2002
:1009E40050726F6772616D202020202020202B0020
:1009F400507265737320616E79206B65792E2E2E8B
:100A040000202D20697320646967697400256325BB
:100A1400730D00202D20697320616C70686100459E
:100A24006E74657265642073796D626F6C2069738E
:100A34003A20456E746572002D2D2D2D2D2D2D2DF2
:100A44002D2D2D2D2D2D2D2D2D2D2D2D2D2D2D2DD2
:100A54000D00456E74657265642073796D626F6C08
:100A64002069733A20537061636500456E74657242
:100A740065642073796D626F6C2069733A20002578
:100A84007325630D0053796D626F6C207761732059
:100A94007265636569766564207769746820657238
:040AA400726F7200FB
:00000001FF
