:020000040800F2
:100000000040002013010008C10000088901000819
:10001000C5000008C7000008C90000080000000073
:10002000000000000000000000000000CB000008FD
:10003000CD00000800000000CF000008D10000083B
:10004000D3000008D5000008D7000008D900000838
:10005000DB000008DD000008DF000008E100000808
:10006000E3000008E5000008E7000008E9000008D8
:10007000EB000008ED000008EF000008F1000008A8
:10008000F3000008F5000008F7000008F900000878
:10009000FB000008FD000008FF0000080101000847
:1000A0000301000805010008070100080901000814
:1000B0000B0100080D0100080F01000811010008E4
:1000C000FEE7FEE7FEE7FEE7FEE7FEE7FEE7FEE708
:1000D000FEE7FEE7FEE7FEE7FEE7FEE7FEE7FEE7F8
:1000E000FEE7FEE7FEE7FEE7FEE7FEE7FEE7FEE7E8
:1000F000FEE7FEE7FEE7FEE7FEE7FEE7FEE7FEE7D8
:10010000FEE7FEE7FEE7FEE7FEE7FEE7FEE7FEE7C7
:10011000FEE70348854600F0EFF800F003B87047AB
:04012000004000207B
:1001240011488546114C20680434004201D08047B0
:10013400F9E70F480F49091A082903DB0022026076
:10014400043001600C480D49884205D0026804302F
:1001540003B4904703BCF7E700208646EC46002032
:100164000021074A9047FEE70040002044060008AB
:100174004800002048040020420600084206000807
:04018400A1010008CD
:100188001EF0040F0CBFEFF30880EFF3098001495C
:08019800084700000D020008F9
:1001A00000B583B00121042000F064F94FF44073DE
:1001B000009301238DF8043000238DF806300023CE
:1001C0008DF8073001238DF805306B4619460D4830
:1001D00000F077F94FF480710A4800F01AFA4FF4F2
:1001E0000071084800F021FA4FF48071054800F0D2
:1001F000FFF94FF40071034800F0FAF9024800F0EB
:0C02000055F9F1E70008024040420F00F1
:10020C0082B001902F4B1B882F4B1B682F4A136217
:10021C002F4B1B78DAB22D4B83F824202D4B1B78F7
:10022C00DBB21A46294B9A622B4B1B68274AD362C6
:10023C002A4B1B889AB2254B1A86224B1B889BB2E1
:10024C001A46224B5A63264B1B889BB21A461F4BED
:10025C009A63244B1B889BB21A461C4BDA63224BC5
:10026C0000221A6000BF204B1B68002BFBD0019BA7
:10027C001B68164A1360019B5B68144A5360019B10
:10028C009B68124A9360019BDB68104AD360019B08
:10029C001B690E4A1361019B5B690C4A5361019BFC
:1002AC009B690A4A9361019BDB69084AD3610E4B37
:1002BC0000221A6000BF0C4B1B68002BFBD002B055
:1002CC00704700BF2CED00E024ED00E000000020A2
:1002DC0028ED00E029ED00E038ED00E02AED00E02B
:0C02EC0030ED00E03CED00E040000020A0
:1002F80008B5154B1B68144A43F480731360124BFE
:100308009A681149114B13408B600F4B1B680E4ABA
:1003180023F0885323F0011313600B4B1B680A4A20
:1003280023F480231360084B9B68074A23F47D035A
:100338009360054B0022DA6000F00CF8044B4FF094
:1003480000629A6000BF08BD003802400CC0FF88F8
:0403580000ED00E0D4
:10035C0082B00023019300230093404B1B683F4A5B
:10036C0043F4803313603D4B1B6803F4003300935C
:10037C00019B01330193009B002B03D1019BB3F52F
:10038C00A04FF0D1354B1B6803F40033002B02D087
:10039C000123009301E000230093009B012B5AD111
:1003AC002F4B1B682E4A43F0040313602C4B1B6825
:1003BC002B4A43F002031360294B1B68284A43F075
:1003CC0001031360254B5B6A244A43F0805353624C
:1003DC00244B4FF400621A6000BF224B5B6803F0A1
:1003EC001003002BF9D11D4B1C4A9B6893601B4BCF
:1003FC001A4A9B689360194B184A9B689360174B79
:10040C009B68164A23F47D039360144B9B68134A34
:10041C0043F411039360114B1B68104A43F0807333
:10042C00136000BF0D4B1B6803F00073002BF9D059
:10043C000A4B9B68094A23F003039360074B9B68A4
:10044C00064A43F00303936000BF044B9B6803F020
:10045C000C030C2BF9D100BF02B0704700380240DE
:08046C00003C0240007000405A
:1004740082B001900B468DF803309DF80330002BB9
:1004840006D0084BDA690749019B1343CB6106E0A8
:10049400044BDA69019BDB4302491340CB6100BF83
:0804A40002B07047003802406D
:1004AC0082B0019000BF019B5A1E0192002BFAD121
:0604BC0000BF02B0704712
:1004C20086B001900091002305930023049300233A
:1004D2000393002302930023059381E00122059BED
:1004E20002FA03F30493009B1B68049A13400393DC
:1004F200039A049B9A4270D1019B1B680293059B4D
:100502005B00032202FA03F3DB43029A13400293D5
:10051200009B1B791A46059B5B0002FA03F3029AC1
:1005220013430293019B029A1A60009B1B79012BD1
:1005320003D0009B1B79022B35D1019B9B68029350
:10054200059B5B00032202FA03F3DB43029A13408A
:100552000293009B5B791A46059B5B0002FA03F348
:10056200029A13430293019B029A9A60019B9B8811
:100572009BB20293059B9BB21A4601239340DB4335
:10058200029A13400293009B9B791A46059B9BB2E9
:1005920002FA03F39BB21A46029B13430293029B95
:1005A2009AB2019B9A80019BDB680293059B9BB2E6
:1005B2005B00032202FA03F3DB43029A1340029325
:1005C200009BDB791A46059B5B0002FA03F3029A51
:1005D20013430293019B029ADA60059B0133059350
:0E05E200059B0F2B7FF67AAF00BF06B0704767
:1005F00082B001900B46ADF80230019B9B8A9AB203
:10060000BDF8023053409AB2019B9A8200BF02B0FB
:02061000704731
:1006120082B001900B46ADF80230019BBDF802207A
:080622001A8300BF02B070470B
:10062A0082B001900B46ADF80230019BBDF8022062
:08063A005A8300BF02B07047B3
:1006440055060008000000204400000000000000DF
:10065400206861680834094204D000220270013025
:060664000139FBD17047D3
:0400000508000113DB
:00000001FF
