:020000040800F2
:100000000040002013010008C1000008C3000008E0
:10001000C5000008C7000008C90000080000000073
:10002000000000000000000000000000CB000008FD
:10003000CD00000800000000CF000008D10000083B
:10004000D3000008D5000008D7000008D900000838
:10005000DB000008DD000008DF000008E100000808
:10006000E3000008E5000008E7000008E9000008D8
:10007000EB000008ED000008EF000008F1000008A8
:10008000F3000008F5000008F7000008F900000878
:10009000FB000008FD000008FF0000080101000847
:1000A0000301000805010008070100080901000814
:1000B0000B0100080D0100080F01000811010008E4
:1000C000FEE7FEE7FEE7FEE7FEE7FEE7FEE7FEE708
:1000D000FEE7FEE7FEE7FEE7FEE7FEE7FEE7FEE7F8
:1000E000FEE7FEE7FEE7FEE7FEE7FEE7FEE7FEE7E8
:1000F000FEE7FEE7FEE7FEE7FEE7FEE7FEE7FEE7D8
:10010000FEE7FEE7FEE7FEE7FEE7FEE7FEE7FEE7C7
:10011000FEE70348854600F037F800F003B8704763
:04012000004000207B
:1001240011488546114C20680434004201D08047B0
:10013400F9E70F480F49091A082903DB0022026076
:10014400043001600C480D49884205D0026804302F
:1001540003B4904703BCF7E700208646EC46002032
:100164000021074A9047FEE7004000208815000858
:100174004000002040040020801500088815000875
:04018400AB140008B0
:1001880008B5154B1B68144A43F480731360124B6F
:100198009A681149114B13408B600F4B1B680E4A2C
:1001A80023F0885323F0011313600B4B1B680A4A92
:1001B80023F480231360084B9B68074A23F47D03CC
:1001C8009360054B0022DA6000F00CF8044B4FF006
:1001D80000629A6000BF08BD003802400CC0FF886A
:0401E80000ED00E046
:1001EC0082B00023019300230093404B1B683F4ACD
:1001FC0043F4803313603D4B1B6803F400330093CE
:10020C00019B01330193009B002B03D1019BB3F5A0
:10021C00A04FF0D1354B1B6803F40033002B02D0F8
:10022C000123009301E000230093009B012B5AD182
:10023C002F4B1B682E4A43F0040313602C4B1B6896
:10024C002B4A43F002031360294B1B68284A43F0E6
:10025C0001031360254B5B6A244A43F080535362BD
:10026C00244B4FF400621A6000BF224B5B6803F012
:10027C001003002BF9D11D4B1C4A9B6893601B4B40
:10028C001A4A9B689360194B184A9B689360174BEA
:10029C009B68164A23F47D039360144B9B68134AA6
:1002AC0043F411039360114B1B68104A43F08073A5
:1002BC00136000BF0D4B1B6803F00073002BF9D0CB
:1002CC000A4B9B68094A23F003039360074B9B6816
:1002DC00064A43F00303936000BF044B9B6803F092
:1002EC000C030C2BF9D100BF02B070470038024050
:0802FC00003C024000700040CC
:1003040088B00190002307930023069300230593EC
:100314000023049300230393002302935E4B9B6802
:1003240003F00C030793079B0C2B65D801A252F82A
:1003340023F000BF6D030008FD030008FD0300085F
:10034400FD0300088D030008FD030008FD030008F9
:10035400FD03000895030008FD030008FD030008E1
:10036400FD0300089D0300084B4B5B685B0B03F027
:1003740007030293029B01334FF4004202FA03F392
:100384001A46019B1A6047E0019B444A1A6043E005
:10039400019B434A1A603FE03F4B9B6803F4701390
:1003A40006933D4B9B6803F440030593069B9B0C0B
:1003B4003C4AD35CDBB20693059B9B0D013305934A
:1003C400354B9B6803F480330493049B002B09D1C1
:1003D400069B324A02FB03F2059BB2FBF3F2019B3C
:1003E4001A6019E0069B2E4A02FB03F2059BB2FB3E
:1003F400F3F2019B1A600FE0274B5B685B0B03F081
:1004040007030293029B01334FF4004202FA03F301
:100414001A46019B1A6000BF1F4B9B6803F0F00350
:100424000793079B1B0907931F4A079B13441B78D9
:10043400DBB20393019B1A68039BDA40019B5A6069
:10044400154B9B6803F4E0630793079B1B0A079310
:10045400154A079B13441B78DBB20393019B5A682C
:10046400039BDA40019B9A600B4B9B6803F4605337
:100474000793079BDB0A07930B4A079B13441B78DC
:10048400DBB20393019B5A68039BDA40019BDA6059
:1004940000BF08B0704700BF003802400024F400D9
:0C04A40000127A00100000200000002070
:1004B00082B001900B468DF803309DF80330002B7D
:1004C00006D0084B1A6A0749019B13430B6206E0EA
:1004D000044B1A6A019BDB43024913400B6200BFC5
:0804E00002B070470038024031
:1004E80000B58BB001900091002309930023089375
:1004F8000023079300230693019B1B8A9BB2099351
:10050800099B23F440530993009BDB881A46099BF7
:1005180013430993099B9AB2019B1A82019B9B89F9
:100528009BB20993099B23F4B05323F00C0309935E
:10053800009B9A88009B1B8913439AB2009B5B8996
:1005480013439BB21A46099B13430993099B9AB21A
:10055800019B9A81019B9B8A9BB20993099B23F477
:1005680040730993009B9B891A46099B134309937F
:10057800099B9AB2019B9A8202AB1846FFF7BEFE0E
:10058800019B2E4A934202D1059B089301E0049BEC
:100598000893019B9B899BB21BB2002B0CDA089A2B
:1005A80013469B0013449A001A44009B1B685B0087
:1005B800B2FBF3F307930BE0089A13469B0013442E
:1005C8009A001A44009B1B689B00B2FBF3F3079345
:1005D800079B1B4AA2FB03235B091B010993099B89
:1005E8001B09642202FB03F3079AD31A0693019BA3
:1005F8009B899BB21BB2002B0CDA069BDB003233C3
:100608000F4AA2FB03235B0903F00703099A13436C
:1006180009930BE0069B1B013233094AA2FB032313
:100628005B0903F00F03099A13430993099B9AB2D4
:10063800019B1A8100BF0BB05DF804FB0038014034
:040648001F85EB51CE
:10064C0082B003468DF807309DF8073003F01F0386
:10065C00012202FA03F1044A9DF907305B0942F8C2
:0C066C00231000BF02B0704700E100E066
:1006780000B583B001900D4A019B1A600C4B1B68B2
:10068800002B02D10B4800F065FA0B4B1B68002BBE
:1006980002D10A4800F05EFA03220021019800F016
:1006A8001BF8019B184603B05DF804FB8411000891
:1006B800200000206413000824000020881300088C
:1006C80082B00190034A019B1A60019B184602B050
:0806D800704700BF8411000807
:1006E00000B589B001900B468DF8033013468DF8A4
:1006F00002309DF80330022B04D9334800F02EFA63
:1007000001235DE09DF80230032B04D92F4800F04F
:1007100025FA012354E09DF80230032B1AD801A2D8
:1007200052F823F0350700083D0700084507000888
:100730004D0700084FF4165307930BE04FF4164390
:10074000079307E04FF46143079303E04FF4E1336D
:10075000079300BF9DF80330012B03D0022B2DD04F
:10076000002B2CE001214FF48040FFF7A1FE079BF6
:1007700003930023ADF818300C23ADF81630002396
:10078000ADF814300023ADF812300023ADF810306E
:1007900003AB19460E48FFF7A7FE072209210D48B3
:1007A00000F093FD01210A4800F02FFE01210848C6
:1007B00000F048FE2520FFF749FF00E000BF0023BE
:1007C000184609B05DF804FBAC130008CC13000810
:0807D000003801400000024066
:1007D80010B582B001900091019B012B1CD1009BA8
:1007E8004FF6FF72934217D1102000F0D3F9034659
:1007F8001C464FF48071204600F0ACF8084B1C6092
:10080800102000F0C7F903461C464FF480712046BB
:1008180000F05CF8034B1C6000BF02B010BD00BFC5
:08082800200000202400002044
:1008300030B482B001900A4A019B1A60019B094AB8
:100840001C1D15460FCD0FC495E8070084E807006E
:10085000019B054A1A62019B184602B030BC7047E2
:0C0860009411000814110008BC100008DE
:10086C0082B00190034A019B1A60019B184602B0AA
:08087C00704700BF9411000851
:1008840010B582B001900091019B012B18D1009BFF
:100894004FF6FF72934213D1042000F07DF9034612
:1008A4001C462046FFF7E6FE074B1C60282000F09C
:1008B40073F903461C462046FFF7B8FF034B1C6040
:1008C40000BF02B010BD00BF280000202C00002093
:1008D40000B583B001900B46ADF80230144A019B79
:1008E4001A60BDF80230002B04D1082211491248C5
:1008F40000F0ADFCBDF80230184600F089F802465D
:10090400019B9A60019B9B68002B02D10B4800F06D
:1009140023F9019B00229A80019B0022DA80019B2B
:10092400BDF802209A81019B184603B05DF804FBD0
:10093400A4110008DC1100081C120008241200088D
:1009440082B00190034A019B1A60019B184602B0D1
:08095400704700BFA411000868
:10095C0000B583B001900B46ADF80230144A019BF0
:10096C001A60BDF80230002B04D10822114912483C
:10097C0000F069FCBDF80230184600F045F802465C
:10098C00019B9A60019B9B68002B02D10B4800F0E5
:10099C00DFF8019B00229A80019B0022DA80019BE8
:1009AC00BDF802209A81019B184603B05DF804FB48
:1009BC00B411000854120008941200089C1200088C
:1009CC0082B00190034A019B1A60019B184602B049
:0809DC00704700BFB4110008D0
:1009E40038B504460D4600F05CFD074B1D6044F02D
:1009F4008004064B1C601A461368002BFCD100F0DF
:100A040051FD014B186838BD34000020300000202F
:100A140038B5214B214A9B1A102B2CD9044600F0DF
:100A24003CFD04F1130020F00F021D4B1968F1B1D5
:100A34004B689A422AD04FF0FF34002505E008683D
:100A440050B14368934218D001469A42F7D2A34268
:100A54003CBF1C460D46F2E74DB16B689B1A6B60B8
:100A6400A31AEC18EA5000F019FD04340CE000F06D
:100A740015FD002408E0002406E003680B6004462A
:100A840044F8042B00F00AFD204638BD0868044BE6
:100A940018600846F3E700BF40040020400000202F
:040AA4001C00002012
:100AA80000284FD038B50446274A904230D3274A09
:100AB80090422DD800F0EFFC211F27D054F8040CE9
:100AC800234B1A685AB18A4211D344F8042C206087
:100AD8001F4B1960084482421BD0002222E01C4BA5
:100AE8001960002344F8043C20600FE01A4613689C
:100AF80013B39942FAD844F8043C206011600844C2
:100B0800834208D05368D01881420ED000F0C4FC4C
:100B180038BD1346002220685D68284420601B68A1
:100B280044F8043C002AF1D0ECE721680B445360F8
:100B380054F8043C1360E9E7002344F8043C2060BF
:100B48001160DFE7704700BF40000020400400202C
:040B58001C0000205D
:100B5C000FB410B586B008AB53F8044B05930023C3
:100B6C0003936FF000430293084B049300F093FC43
:100B7C00059A214601A800F023F8044600F08CFCED
:100B8C00204606B0BDE8104004B07047B31400080E
:100B9C0010B5041E08BF01242046FFF735FF03469D
:100BAC0008B1184610BD054A1268002AF9D09047C2
:100BBC002046FFF729FF0346F3E700BF3C00002067
:100BCC002DE9F04F89B007460D46039200230360D0
:100BDC00DFF8D893DFF8D8B3DFF8D8A348E20022C7
:100BEC0009E0202804D0232818D142F0800201E02B
:100BFC0042F040022E46354615F8010B272807D047
:100C0C00EFD92B2807D05E2808D142F48052F1E7A7
:100C1C0042F40042EEE742F02002EBE774280BD0DE
:100C2C007A2809D0682809D12878682800F08380B0
:100C3C00B51C42F0040201E02878B51C78287FD856
:100C4C00DFE810F02E027E007E007E007E007E002B
:100C5C007E007E007E007E007E007E007E007E0098
:100C6C007E007E007E007E007E007E007E007E0088
:100C7C007E007E007E007E007E007E007E007E0078
:100C8C007E007E007E007E007E007E007E008B005B
:100C9C007E007E007E007E007E007E007E007E0058
:100CAC007E007E007E007E007E007E007E007E0048
:100CBC007E007E007E007E007E007E007E007E0038
:100CCC007E007E007E007E007E007E007E007E0028
:100CDC007E007E007E007E007E007E007E007E0018
:100CEC007E007E007E007E007E007E007E007E0008
:100CFC007E007E00CD007E007E007E007E007E00A9
:100D0C007E007E007E007E007E009000E1007E0072
:100D1C007E007E007E00E1007E007E007E007E0074
:100D2C009800DA00B9007E007E00A9007E001D014B
:100D3C007E007E00CF0042F00802687802357DE725
:100D4C00994B1E68002E00F0938103AB01934FF07A
:100D5C00FF3300933946B0478AE12521384600F02D
:100D6C00DCFB85E1039B1A1D03921978384600F0D1
:100D7C00D4FB7DE112F0080F06D03A68039B191DD5
:100D8C0003911B681A7073E1039B1A1D03921B6875
:100D9C003A681A606CE1039B1A1D03921C68217857
:100DAC00002900F06581384600F0B7FB14F8011FEC
:100DBC000029F8D15CE1039B191D03911B6802F01B
:100DCC00800100290CBF0026232642F48071002BE1
:100DDC0040F0CD8030238DF814300124F9E042F43A
:100DEC00005212F0800F57D043F2780643F25803AA
:100DFC00782818BF1E4643E002F08003002B0CBF7E
:100E0C00002630263CE042F48041039B1C1D0394D9
:100E1C001B6812F0040F41D112F0080F3FD0DBB267
:100E2C0012F0200F40F03F8112F0400440F03D8161
:100E3C005838202800F20F81DFE810F097000D01E0
:100E4C000D010D010D010D010D010D010D010D0126
:100E5C000D010D01DC000D010D010D010D01DC007A
:100E6C000D010D010D010D010D01AE0097000D01DD
:100E7C000D010D010D01DC000D010D019700002687
:100E8C00039B191D03911B6812F0040F54D112F02F
:100E9C00080F18BFDBB250E00026F1E71BB2002BA5
:100EAC00BEDA5B422D265838202800F2D68001A2EB
:100EBC0052F820F0DB0D00086710000867100008DE
:100ECC00671000086710000867100008671000081A
:100EDC00671000086710000867100008671000080A
:100EEC0067100008F50F000867100008671000086D
:100EFC006710000867100008F50F0008671000085D
:100F0C0067100008671000086710000867100008D9
:100F1C00A70F0008DB0D0008671000086710000819
:100F2C006710000867100008F50F0008671000082C
:100F3C0067100008DB0D00089BB2583820287ED8BB
:100F4C00DFE800F0117D7D7D7D7D7D7D7D7D7D7D6E
:100F5C00517D7D7D7D517D7D7D7D7D2B117D7D7DCB
:100F6C007D517D7D1100114631E700262FE705AA42
:100F7C00002401F4005008E003F00F011BF801C03D
:100F8C0002F801CB01341B0923D00028F4D003F064
:100F9C000F011AF801C0F3E700266BB930238DF866
:100FAC001430012415E000BF38000020CDCCCCCC8F
:100FBC00BC110008CC1100081A4605A9002403F046
:100FCC000703303301F8013B0134D2081346002AE1
:100FDC00F5D1FF2E35D8C6BB002C49DD0DF1140818
:100FEC00013C44443CE0114633B930238DF81430B5
:100FFC000124EEE70026F7E7002401F400404FF04F
:10100C002C0E10E008AA02EB040CA9FB0321C90862
:10101C0001EB8102A3EB420230320CF80C2C0134B0
:10102C00092BD6D90B460028ECD004F00302032A76
:10103C00E8D108AA224402F80CEC0134E2E70024BF
:10104C00C7E7310A384600F068FA06F07F013846E7
:10105C0000F063FAC0E70026BDE70024F5E734464C
:10106C00264616F80119384600F057FA4445F6D1D1
:10107C002E4616F8011B39B125293FF4B0AD384680
:10108C0000F04BFA3546F3E7BB682BB13A68796848
:10109C008A423CBF00219954386809B0BDE8F08FF2
:1010AC004FF0FF30F9E72B26FDE62026FBE600BFCC
:1010BC004F4B000041540D0A0000000041542B52CC
:1010CC0053540D0A0000000041542B474D520D0A99
:1010DC000000000041542B47534C500D0A000000F7
:1010EC004154450D0A00000041542B524553544FB6
:1010FC0052450D0A0000000041542B554152545FDB
:10110C004355523F0A0D0000C0100008C8100008DB
:10111C00D4100008E0100008EC100008F4100008CF
:10112C00041100084573702E6370702E2043616E9D
:10113C00277420637265617465205541525420698F
:10114C006E7374616E63650A000000004573702E47
:10115C006370702E2043616E277420637265617416
:10116C00652045535020696E7374616E63650A0087
:10117C000000000000000000C9060008B7140008B9
:10118C0000000000000000006D080008D3140008E7
:10119C00000000000000000045090008EF140008E2
:1011AC000000000000000000CD0900080B1500082D
:1011BC0030313233343536373839616263646566C1
:1011CC003031323334353637383941424344454671
:1011DC002F686F6D652F6A7572612F656D6265641E
:1011EC006465642F53544D2F73746D33322F6D65BA
:1011FC0074656F2F6275666665722F6669666F2FF0
:10120C007372632F4669666F2E6370700000000066
:10121C0073697A65000000004572726F722E20436C
:10122C00616E277420616C6C6F63617465206D65F1
:10123C006D6F727920666F72204669666F204275F9
:06124C00666665720A00EF
:02125200FEE7B5
:101254002F686F6D652F6A7572612F656D626564A5
:101264006465642F53544D2F73746D33322F6D6541
:1012740074656F2F6275666665722F72696E672F6B
:101284007372632F52696E672E63707000000000E2
:1012940073697A65000000004572726F722E2043F4
:1012A400616E277420616C6C6F63617465206D6579
:1012B4006D6F727920666F722052696E6720427575
:0612C400666665720A0077
:1012CA0084B001900B46ADF8023013468DF8013018
:1012DA0000230393002302939DF80120BDF80230F6
:1012EA0003F007039B0002FA03F30393BDF80230ED
:1012FA00DB089BB21A46019B083253F82220BDF83C
:10130A00023003F007039B000F2101FA03F3DB43CA
:10131A00BDF80210C90889B2084602EA0301019B16
:10132A0000F1080243F82210BDF80230DB089BB234
:10133A001A46019B083253F82230039A1343029348
:10134A00BDF80230DB089BB21A46019B08320299AB
:0A135A0043F8221000BF04B07047F2
:101364004572726F722E2043616E2774206372651A
:101374006174652052696E6720696E7374616E636F
:10138400650A00004572726F722E2043616E2774E5
:1013940020637265617465204669666F20696E73A7
:1013A40074616E63650A00004572726F722E205577
:1013B4006E65787065637465642055415254206E7F
:1013C400756D6265720A00004572726F722E205547
:1013D4006E6578706563746564205541525420735A
:1013E400706565640A0000004572726F722E2049B0
:1013F4006E636F727265637420554152542073702A
:051404006565640A00AB
:10140A0082B001900B468DF803309DF80330002B13
:10141A0008D0019B9B899BB243F400539AB2019B6B
:10142A009A8107E0019B9B899BB223F400539AB2ED
:0A143A00019B9A8100BF02B07047C9
:1014440082B001900B468DF803309DF80330002BD9
:101454000AD0019B9B899BB26FEA43436FEA5343D3
:101464009AB2019B9A8107E0019B9B899BB2C3F3CB
:0E1474000E039AB2019B9A8100BF02B070472E
:0E14820008B54FF6FF710120FFF7A5F908BD70
:0E14900008B54FF6FF710120FFF7F4F908BD13
:02149E00704795
:0214A000704793
:0214A200704791
:0214A40070478F
:0214A60070478D
:0214A80070478B
:0814AA0082B001900091FEE701
:0414B20000F058B836
:1014B60000B583B001900198FFF703F9019800F099
:0C14C60049F8019B184603B05DF804FBD8
:1014D20000B583B001900198FFF7C7F9019800F0B9
:0C14E2003BF8019B184603B05DF804FBCA
:1014EE0000B583B001900198FFF725FA019800F03E
:0C14FE002DF8019B184603B05DF804FBBC
:10150A0000B583B001900198FFF75BFA019800F0EB
:0C151A001FF8019B184603B05DF804FBAD
:1015260038B504460846A26842B1236861685D1C66
:101536008D4208BF00208B4208D2D054E3682BB1FD
:1015460021686268914201D2214698472368013397
:04155600236038BD19
:0C155A0018B108B5FFF7A3FA08BD7047F0
:1015660010B5044601461720FFF739FA00280CBFCC
:0815760020464FF0FF3010BDCC
:0415800083140008C8
:0415840091140008B6
:10158800D71500082000002020000000ED150008F5
:1015980000000020B815000819000000ED1500082B
:1015A8001C000020D1150008040000000000000005
:1015B80000000000010203040102030406070809F1
:0D15C800030406080C10182030400000201D
:1015D600206861680834094204D000220270013094
:0615E6000139FBD1704742
:1015EC0020686168A2680C34124205D00B78037035
:0A15FC0001300131013AF9D17047C6
:0400000508000113DB
:00000001FF
