:100000000C9430000C944D000C944D000C944D0059
:100010000C944D000C944D000C944D000C944D002C
:100020000C944D000C944D000C944D000C944D001C
:100030000C944D000C944D000C944D000C944D000C
:100040000C944D000C944D000C944D000C944D00FC
:100050000C944D006364696E6F70737578585B0023
:1000600011241FBECFE5D8E0DEBFCDBF11E0A0E672
:10007000B0E0E8E5F1E102C005900D92AA30B107C9
:10008000D9F721E0AAE0B1E001C01D92A031B2078A
:10009000E1F70E944F000C94AA080C940000CF9343
:1000A000DF931F92CDB7DEB7EAE0F1E08EE690E095
:1000B0009383828380E690E0918380830E9438025C
:1000C0000E94480280E38983CC24C394D12C16C0BB
:1000D00010E08AE290E00E947A021F5F812F90E098
:1000E0008E159F05B4F38DE090E00E947A022FEF09
:1000F000C21AD20A3BE0C316D10429F076011C14BF
:100100001D0434F3F0CF8CE790E09F938F930E940F
:1001100064020F900F900AE00CC08AE290E00E9407
:100120007A021150D1F78DE090E00E947A020150DE
:1001300011F01AE0F2CF8CE790E09F938F930E942A
:1001400064020F900F9000E01BC0112331F01930B2
:1001500021F0002311F0093029F48AE290E00E9496
:100160007A0204C080E290E00E947A021F5F1A3097
:1001700061F78DE090E00E947A020F5F0A3011F083
:1001800010E0E3CF8CE790E09F938F930E9464028E
:100190000F900F90CC24C394D12C00E020C010E02D
:1001A000112321F0011711F0093029F48AE290E0BF
:1001B0000E947A0204C080E290E00E947A021F5FEF
:1001C000812F90E08E159F055CF38DE090E00E94FA
:1001D0007A020F5F8FEFC81AD80A0A3029F0760129
:1001E0001C141D04E4F2F1CF8CE790E09F938F93F1
:1001F0000E9464020F900F900F2EF9E0CF2ED12CA9
:10020000F02DF12C27C0002361F0093051F0FF20C0
:1002100041F099E0F91629F00F1519F00C151D059C
:1002200029F48AE290E00E947A0204C080E290E021
:100230000E947A020F5F1F4F0A30110521F78DE0EF
:1002400090E00E947A02F39421E0C21AD1083AE0C9
:10025000F31619F000E010E0D6CF8CE790E09F9302
:100260008F930E9464020F900F900F2EFBEFEF2EE2
:10027000FF24FA94F02D512C0F2EFAE06F2E712CE2
:10028000F02D37C085E0851590F0053031F0C016AF
:10029000D10619F0A016B10629F48AE290E00E9476
:1002A0007A0216C080E290E00E947A0211C0053006
:1002B00031F0E016F10619F08016910629F48AE271
:1002C00090E00E947A0204C080E290E00E947A02EC
:1002D0000F5F1F4F0B301105A9F68DE090E00E94D3
:1002E0007A0253949FEFE91AF90A2BE0521609F4A7
:1002F000ABC000E010E043018E189F08CC24DD2441
:10030000CE18DF0857013AE0A30EB11CBBCF85E041
:100310008515A0F0053011F4552031F0E016F106F6
:1003200019F0A016B10629F48AE290E00E947A0240
:1003300019C080E290E00E947A0214C0053019F4DE
:100340009AE0591631F0C016D10619F080169106C0
:1003500029F48AE290E00E947A0204C080E290E0F0
:100360000E947A020F5F1F4F0B30110581F68DE05E
:1003700090E00E947A02539421E0E21AF1083BE0F7
:10038000531671F000E010E0CC24DD24CE18DF0815
:1003900047018AE0880E911C5301AE18BF08B7CF01
:1003A0008CE790E09F938F930E9464020F900F90D0
:1003B0000F2EFFE7CF2EF0E0DF2EF02D0F2EF7EA05
:1003C000EF2EF0E0FF2EF02D9E012F5F3F4F5901E1
:1003D0000BEA10E00F2EFEEA8F2EF0E09F2EF02D9C
:1003E0000F2EFAEC6F2EF0E07F2EF02DDF92CF92E1
:1003F000FF92EF920E946402BF92AF921F930F93FD
:100400000E94B10289810FB6F894DEBF0FBECDBF46
:1004100090ED980F9A3098F4282F082E000C330B8B
:100420003F938F939F928F927F926F920E9464026C
:100430000F900F900F900F900F900F90D7CF80EDEF
:1004400090E00E948102D2CF8CE790E09F938F933F
:100450000E9464020F900F900F2EF5E0EF2EF12C0A
:10046000F02D512C0F2EFAE06F2E712CF02D8ACF2B
:1004700091E097BB8EEF88BB85B7826085BF8BB755
:1004800080648BBF84E083BF82EB82BF99BF0895F5
:1004900010BC8CE089B9539A549A599A08955D9B7F
:1004A000FECF8CB980E090E008955F9BFECF5C9911
:1004B00004C05B9902C05A9B04C01CB880E090E065
:1004C00008958CB190E00895A0E0B0E0EAE6F2E093
:1004D0000C948308AE014B5F5F4FFA0161917191FB
:1004E000AF0180910C0190910D010E94C702E2E0E2
:1004F0000C949F0860910C0170910D010E94BD0742
:1005000008950F931F93CF93DF93E0910C01F09127
:100510000D01238121FF1BC08C01D0E0C0E0F80158
:1005200081918F0160910C0170910D01DB01189692
:10053000ED91FC911997882331F00995892B79F376
:10054000DFEFCFEFECCF8AE00995892B19F08FEF21
:100550009FEF02C08D2F9C2FDF91CF911F910F91A4
:100560000895A0E0B0E0E7EBF2E00C948308AE0160
:100570004B5F5F4FFA0161917191AF0180910A0168
:1005800090910B010E944406E2E00C949F08ABE0BE
:10059000B0E0EDECF2E00C9473086C017B018A0191
:1005A000FC0117821682838181FFCCC1CE010196A6
:1005B0003C01F6019381F70193FD859193FF8191B1
:1005C0007F01882309F4BAC1853239F493FD8591FE
:1005D00093FF81917F01853229F4B60190E00E945A
:1005E000BD07E7CF912C212C312CFFE1F315D8F07A
:1005F0008B3279F038F4803279F08332A1F4232DF4
:1006000020611DC08D3261F0803369F4232D21609B
:1006100016C0832D8260382EE32DE4603E2E2AC062
:10062000F32DF8601DC037FC2DC020ED280F2A30B7
:1006300040F08E32B9F436FC81C1232D2064322E75
:1006400019C036FE06C08AE0989E200D1124922E15
:1006500011C0EAE02E9E200D1124222EF32DF0620F
:100660003F2E08C08C3621F4832D8068382E02C0BE
:10067000883641F4F70193FD859193FF81917F01C5
:100680008111B3CF982F9F7D9554933028F40C5F40
:100690001F4F9FE399830DC0833631F0833771F08C
:1006A000833509F059C021C0F801808189830E5F2C
:1006B0001F4F88248394912C530113C02801F2E02A
:1006C0004F0E511CF801A080B18036FE03C0692D89
:1006D00070E002C06FEF7FEFC5010E9474074C010C
:1006E0008201F32DFF773F2E16C0280122E0420E33
:1006F000511CF801A080B18036FE03C0692D70E066
:1007000002C06FEF7FEFC5010E9469074C01F32D16
:10071000F0683F2E820133FC1BC0822D90E08816CA
:100720009906B0F4B60180E290E00E94BD072A94D9
:10073000F4CFF50137FC859137FE81915F01B60159
:1007400090E00E94BD0721102A9421E0821A9108AE
:100750008114910471F7E8C0843611F0893641F5AF
:10076000F80137FE07C060817181828193810C5F3F
:100770001F4F08C060817181072E000C880B990BF8
:100780000E5F1F4FF32DFF763F2E97FF09C0909508
:100790008095709561957F4F8F4F9F4FF0683F2EEA
:1007A0002AE030E0A3010E941208882E861845C076
:1007B000853731F4232D2F7EB22E2AE030E025C07C
:1007C000932D997FB92E8F36C1F018F4883579F0C2
:1007D000B5C0803719F0883721F0B0C0E92FE0614B
:1007E000BE2EB4FE0DC0FB2DF460BF2E09C034FE3A
:1007F0000AC0292F2660B22E06C028E030E005C0CE
:1008000020E130E002C020E132E0F801B7FE07C08D
:1008100060817181828193810C5F1F4F06C060816E
:10082000718180E090E00E5F1F4FA3010E941208CB
:10083000882E8618FB2DFF773F2E36FE0DC0232D08
:100840002E7FA22E891458F434FE0BC032FC09C04E
:10085000832D8E7EA82E05C0B82CA32C03C0B82CE7
:1008600001C0B92CA4FE0FC0FE01E80DF11D80816E
:10087000803321F49A2D997EA92E09C0A2FE06C0CC
:10088000B394B39404C08A2D867809F0B394A3FC82
:1008900011C0A0FE06C0B21488F4280C922C9B183C
:1008A0000EC0B21460F4B60180E290E00E94BD0771
:1008B000B394F7CFB21418F42B1802C0982C212C43
:1008C000A4FE10C0B60180E390E00E94BD07A2FE26
:1008D00017C0A1FC03C088E790E002C088E590E063
:1008E000B6010CC08A2D867859F0A1FE02C08BE2B9
:1008F00001C080E2A7FC8DE2B60190E00E94BD0736
:10090000891438F4B60180E390E00E94BD079A9400
:10091000F7CF8A94F301E80DF11D8081B60190E0D4
:100920000E94BD078110F5CF222009F442CEB60106
:1009300080E290E00E94BD072A94F6CFF6018681FE
:10094000978102C08FEF9FEF2B96E2E10C948F0806
:1009500020FD09C0FC0123FD05C022FF02C07383F6
:10096000628351834083089544FD17C046FD17C03C
:10097000AB01BC01DA01FB01AA0FBB1FEE1FFF1F79
:100980001094D1F74A0F5B1F6E1F7F1FCB01BA0176
:10099000660F771F881F991F09C033E001C034E03C
:1009A000660F771F881F991F3150D1F7620F711D95
:1009B000811D911D08950F931F93CF93DF938C0199
:1009C000C8010E947F07EC0197FD08C00E945507EF
:1009D000892BB1F7B801CE010E94F907CE01DF9152
:1009E000CF911F910F9108958F929F92AF92BF92D6
:1009F000EF92FF920F931F93CF93DF938C01D62F2B
:100A00007A01B22E0E947F079C0133272B323105D9
:100A100031F02D32310561F48B2D8068B82ED15024
:100A200011F480E068C0C8010E947F0797FDF9CFEC
:100A3000CB2DCD7F2B2D207309F58033F9F4AA241B
:100A4000AA94AD0E09F443C0C8010E947F0797FD28
:100A50003EC09C012F7D33272835310549F4C264FF
:100A6000D250A9F1C8010E947F0797FF07C02FC08D
:100A7000B6FE02C0C26001C0C261DA2D812C912C89
:100A8000540120ED280F283080F0C4FF04C0B801C5
:100A90000E94F90719C02A3040F0C6FFF8CF2F7D19
:100AA0003FEE320F363098F727504C2FC501B40176
:100AB0000E94B4044B015C01C260D15059F0C801DE
:100AC0000E947F0797FFDDCFC1FD04C0AACF812C14
:100AD000912C5401C7FF08C0B094A09490948094C6
:100AE000811C911CA11CB11C2C2FB501A401C701B4
:100AF0000E94A80481E0DF91CF911F910F91FF9098
:100B0000EF90BF90AF909F908F900895A0E2B0E0DB
:100B1000ECE8F5E00C9476085C01962E7A01F90178
:100B20008E010F5F1F4F680180E2D8011D928A95E8
:100B3000E9F7D50113968C9080E090E0612C712C40
:100B400030E061E070E083FC259183FE21918F010C
:100B5000522E211103C080E090E092C02E3511F496
:100B6000009751F1432F50E0481759073CF42D35B9
:100B700059F12D3219F4772009F103C0772009F4D7
:100B80006AC0452D469546954695D601A40FB11DE0
:100B9000452D47708B0102C0000F111F4A95E2F7E7
:100BA000A8015C91452B4C93651459F0561410F430
:100BB0005394E7CF5A94E5CF31E004C0772473947F
:100BC00001C0712C0196BFCF772019F08E81806211
:100BD0008E83311103C08824839417C0F6019E01CF
:100BE0002F5D3F4F8081809581932E173F07D1F76E
:100BF000F2CFE114F10429F0D7018C93F70131967B
:100C00007F019A94812C9920F9F0C5010E947F07F9
:100C100097FD18C0FC01FF2723E0F595E7952A957D
:100C2000E1F7EC0DFD1D208130E0AC014770552748
:100C300002C0359527954A95E2F720FDDACFB50138
:100C40000E94F907811087CFE114F10411F0D70158
:100C50001C92C80115C0422F469546954695D6016F
:100C6000A40FB11D422F47708B0102C0000F111F4E
:100C70004A95E2F7A8015C91452B4C93622EA2CFD6
:100C8000A096EFE00C949208A0E0B0E0EAE4F6E071
:100C90000C9476086C01EB015A01FC011782168254
:100CA000512CF601E380FE01E3FC8591E3FE819186
:100CB000182FEF01882309F4EEC090E00E94550739
:100CC000892B21F0C6010E94DB04EBCF153241F4E1
:100CD000FE01E3FC1591E3FE1191EF01153281F461
:100CE000C6010E947F0797FDD4C0412F50E09C01B0
:100CF000332724173507A9F2B6010E94F907CBC0A4
:100D00001A3239F4E3FC1591E3FE1191EF0101E091
:100D100001C000E0F12C20ED210F2A3080F40260A8
:100D20006F2D70E080E090E040E20E94B404F62E67
:100D3000FE01E3FC1591E3FE1191EF01ECCF01FF01
:100D400003C0F11003C0A7C0FF24FA94183619F0AD
:100D50001C3651F010C0FE01E3FC1591E3FE119129
:100D6000EF01183641F408600460FE01E3FC1591C0
:100D7000E3FE1191EF01112309F48DC0612F70E0A2
:100D800084E590E00E945E07892B09F484C000FD91
:100D900007C0F50180809180C50102965C0102C008
:100DA000812C912C1E3651F4F6014681578160E06A
:100DB00070E0202FC4010E94A80473CF1336A9F459
:100DC00001FD02C0FF24F394C6010E947F0797FD36
:100DD00060C08114910429F0F4018083C40101965C
:100DE0004C01FA94F110F0CF50C01B3559F49E011C
:100DF000A4016F2DC6010E948605EC01892B09F024
:100E000044C03EC0C6010E94DB0497FD42C01F36AD
:100E100061F128F4143639F1193651F128C013372D
:100E200071F0153701F123C08114910429F0F40108
:100E30006082C40101964C01FA94FF2071F0C60152
:100E40000E947F073C0197FD08C00E945507892B2F
:100E500059F3B601C3010E94F90781149104A9F066
:100E6000F401108212C0006203C0006101C000647E
:100E7000202FA4016F2DC6010E94F404811105C02A
:100E8000F6018381807329F406C000FD0ACF5394D4
:100E900008CF552019F0852D90E002C08FEF9FEF0D
:100EA000CDB7DEB7EFE00C94920891110C94700866
:100EB000803219F089508550C8F70895FC010590DB
:100EC000061621F00020D9F7C00108953197CF010F
:100ED0000895FC010590615070400110D8F780958D
:100EE00090958E0F9F1F0895FC01615070400190F6
:100EF0000110D8F7809590958E0F9F1F0895CF937E
:100F0000DF93EC012B8120FF33C026FF0AC02F7B2B
:100F10002B838E819F8101969F838E838A8190E0AF
:100F200029C022FF0FC0E881F9818081082E000CC2
:100F3000990B009719F420622B831AC03196F9831C
:100F4000E8830EC0EA85FB85099597FF09C02B81D0
:100F5000019611F080E201C080E1822B8B8308C0F2
:100F60002E813F812F5F3F4F3F832E83992702C001
:100F70008FEF9FEFDF91CF9108950F931F93CF9342
:100F8000DF93FB01238121FD03C08FEF9FEF2CC076
:100F900022FF16C0468157812481358142175307AD
:100FA00044F4A081B1819D012F5F3F4F31832083A5
:100FB0008C93268137812F5F3F4F3783268314C060
:100FC0008B01EC01FB010084F185E02D0995892B53
:100FD000E1F6D80116968D919C9117970196179678
:100FE0009C938E931697CE01DF91CF911F910F9115
:100FF0000895FB01238120FF12C026FD10C08F3F02
:101000003FEF930761F082832F7D20642383268145
:1010100037812150310937832683992708958FEF2F
:101020009FEF0895FA01AA27283051F1203181F16C
:10103000E8946F936E7F6E5F7F4F8F4F9F4FAF4FE0
:10104000B1E03ED0B4E03CD0670F781F891F9A1FF3
:10105000A11D680F791F8A1F911DA11D6A0F711DA7
:10106000811D911DA11D20D009F468943F912AE0B3
:10107000269F11243019305D3193DEF6CF0108959B
:10108000462F4770405D4193B3E00FD0C9F7F6CFCC
:10109000462F4F70405D4A3318F0495D31FD405294
:1010A000419302D0A9F7EACFB4E0A695979587952A
:1010B00077956795BA95C9F7009761057105089509
:1010C0009B01AC010A2E06945795479537952795B5
:1010D000BA95C9F7620F731F841F951FA01D08954D
:1010E0009927882708952F923F924F925F926F928F
:1010F0007F928F929F92AF92BF92CF92DF92EF92A8
:10110000FF920F931F93CF93DF93CDB7DEB7CA1B28
:10111000DB0B0FB6F894DEBF0FBECDBF09942A8853
:10112000398848885F846E847D848C849B84AA84FB
:10113000B984C884DF80EE80FD800C811B81AA8188
:10114000B981CE0FD11D0FB6F894DEBF0FBECDBF53
:08115000ED010895F894FFCFB2
:10115800000000010000000000005502000000002F
:101168000002000000004F02000000000D0D00C347
:1011780082C3A2C3A5C3A4C3A8C3B2C3A520C3B7CF
:10118800C3A8C3B1C3ABC3AE20C3AEC3B220302023
:10119800C3A4C3AE20390025730D00256300C382A4
:1011A800C3BB20C3A2C3A2C3A5C3ABC3A820C3B7F4
:1011B800C3A8C3B1C3ABC3AE2000257325630D001C
:1011C800C38EC398C388C381C38AC3802120C382C6
:1011D800C3BB20C3A2C3A2C3A5C3ABC3A820C3ADCE
:1011E800C3A5C3A2C3A5C3B0C3ADC3AEC3A520C323
:0A11F800B7C3A8C3B1C3ABC3AE0078
:00000001FF
