:100000000C942A000C9447000C9447000C94470071
:100010000C9447000C9447000C9447000C94470044
:100020000C9447000C9447000C9447000C94470034
:100030000C9447000C9447000C9447000C94470024
:100040000C9447000C9447000C9447000C94470014
:100050000C94470011241FBECFE5D8E0DEBFCDBF12
:1000600010E0A0E6B0E0EAE4F3E002C005900D92F3
:10007000AA37B107D9F720E0AAE7B0E001C01D9286
:10008000A138B207E1F70E941A010C94A3010C9465
:100090000000DC98662311F0DE9A01C0DE989BB365
:1000A000907F892B8BBBDD9ADD980895DC9A9AB3FB
:1000B000907F9ABB882311F0DE9A01C0DE98DD9A0A
:1000C000000089B3DD989AB39F609ABBDC988F706B
:1000D0000895CF93DF93C82FD62F82958F700E94FB
:1000E00049006D2F8C2F8F700E944900DF91CF91B6
:1000F0000895CF93DF93C82F0E945600D82FD29532
:10010000D07F8C2F0E9456008D2BDF91CF910895C8
:1001100080E00E9479008823DCF30895D69AD49A6F
:10012000D59A8AB38F608ABB85EA9EE00197F1F782
:1001300000C0000060E083E00E94490080E094E09D
:100140000197F1F700C0000060E083E00E944900E1
:1001500091E29A95F1F7000060E083E00E94490087
:100160008CE08A95F1F7000060E082E00E9449008F
:1001700080E00E94880060E088E20E94690080E0E0
:100180000E94880060E088E00E94690080E00E9490
:10019000880008958BB3807F8BBBDE98DC98DD9858
:1001A00008950E948E0060E081E00E94690081E075
:1001B0000E94880060E086E00E94690080E00E9462
:1001C000880060E08FE00E94690080E00E94880063
:1001D0000895CF93C82F80917A008823D1F0CA3038
:1001E000D1F080E00E94880060E081E00E94690018
:1001F00080E00E94880060E082E00E94690081E067
:100200000E94880060E080E80E94690010927A00F5
:1002100006C0CA3021F481E080937A0007C080E0F4
:100220000E94880061E08C2F0E94690080E090E0CD
:10023000CF9108950E94D10080E690E090938000D5
:1002400080937F009C014AE050E061E070E08EE620
:1002500090E00E94380181E087BB91E088B3892754
:1002600088BBE7EAF1E63197F1F700C00000F6CF6E
:10027000A0E0B0E0EEE3F1E00C9472015B014A0112
:100280007901D90113962C9121FF1DC0C0E0D0E067
:10029000C815D905D9F08C016C01CA0CDB1CC8014A
:1002A0000C151D0571F00F5F1F4FD7011896ED91CA
:1002B000FC911997B701DC018C910995892B79F391
:1002C00005C02196E5CF80E090E001C0CE01CDB71A
:1002D000DEB7ECE00C948E012F923F924F925F922A
:1002E0006F927F928F929F92AF92BF92CF92DF9246
:1002F000EF92FF920F931F93CF93DF93CDB7DEB7AB
:10030000CA1BDB0B0FB6F894DEBF0FBECDBF09943E
:100310002A88398848885F846E847D848C849B8495
:10032000AA84B984C884DF80EE80FD800C811B81A3
:10033000AA81B981CE0FD11D0FB6F894DEBF0FBED2
:0A034000CDBFED010895F894FFCF42
:10034A000000000200000000E9000000000048452B
:0A035A004C4C4F204156520A00009F
:00000001FF
