:020000040800F2
:100000000040002013010008C1000008C3000008E0
:10001000C5000008C7000008C90000080000000073
:10002000000000000000000000000000CB000008FD
:10003000CD00000800000000CF000008D10000083B
:10004000D3000008D5000008D7000008D900000838
:10005000DB000008DD000008DF000008E100000808
:10006000E3000008E5000008E7000008E9000008D8
:10007000EB000008ED000008EF000008F1000008A8
:10008000F3000008F5000008F7000008F900000878
:10009000FB000008FD000008FF0000080101000847
:1000A0000301000805010008070100080901000814
:1000B0000B0100080D0100080F01000811010008E4
:1000C000FEE7FEE7FEE7FEE7FEE7FEE7FEE7FEE708
:1000D000FEE7FEE7FEE7FEE7FEE7FEE7FEE7FEE7F8
:1000E000FEE7FEE7FEE7FEE7FEE7FEE7FEE7FEE7E8
:1000F000FEE7FEE7FEE7FEE7FEE7FEE7FEE7FEE7D8
:10010000FEE7FEE7FEE7FEE7FEE7FEE7FEE7FEE7C7
:10011000FEE70348854600F085F800F003B8704715
:04012000004000207B
:1001240011488546114C20680434004201D08047B0
:10013400F9E70F480F49091A082903DB0022026076
:10014400043001600C480D49884205D0026804302F
:1001540003B4904703BCF7E700208646EC46002032
:100164000021074A9047FEE700400020C80300082A
:100174000000002000040020C6030008C603000895
:04018400B7030008B5
:10018800094B1B68084A43F4A0231360064B9B687D
:10019800054A43F470239360034BDB68024A43F437
:0C01A800A023D36000BF70470008024095
:1001B400034BDB69024A43F00403D36100BF704779
:0401C40000380240BD
:1001C80008B5144B5B8B9BB2124A43F400739BB285
:1001D8005383104B1B8B9BB20E4A43F480739BB224
:1001E80013830D4800F0D8F80A4B1B8B9BB2094AC1
:1001F80043F400739BB21383064B5B8B9BB2054A97
:1002080043F480739BB25383034800F0C5F800BFE2
:0C02180008BD00BF0008024020A1070044
:1002240008B5154B1B68144A43F480731360124BD2
:100234009A681149114B13408B600F4B1B680E4A8F
:1002440023F0885323F0011313600B4B1B680A4AF5
:1002540023F480231360084B9B68074A23F47D032F
:100264009360054B0022DA6000F00CF8044B4FF069
:1002740000629A6000BF08BD003802400CC0FF88CD
:0402840000ED00E0A9
:1002880082B00023019300230093404B1B683F4A30
:1002980043F4803313603D4B1B6803F40033009331
:1002A800019B01330193009B002B03D1019BB3F504
:1002B800A04FF0D1354B1B6803F40033002B02D05C
:1002C8000123009301E000230093009B012B5AD1E6
:1002D8002F4B1B682E4A43F0040313602C4B1B68FA
:1002E8002B4A43F002031360294B1B68284A43F04A
:1002F80001031360254B5B6A244A43F08053536221
:10030800244B4FF400621A6000BF224B5B6803F075
:100318001003002BF9D11D4B1C4A9B6893601B4BA3
:100328001A4A9B689360194B184A9B689360174B4D
:100338009B68164A23F47D039360144B9B68134A09
:1003480043F411039360114B1B68104A43F0807308
:10035800136000BF0D4B1B6803F00073002BF9D02E
:100368000A4B9B68094A23F003039360074B9B6879
:10037800064A43F00303936000BF044B9B6803F0F5
:100388000C030C2BF9D100BF02B0704700380240B3
:08039800003C0240007000402F
:1003A00082B0019000BF019B5A1E0192002BFAD12E
:0603B00000BF02B070471F
:1003B60008B5FFF7FCFEFFF7E4FEFFF702FFFCE7D8
:0403C8000000000031
:0400000508000113DB
:00000001FF
