:020000040800F2
:100000000040002013010008C10000088901000819
:10001000C5000008C7000008C90000080000000073
:10002000000000000000000000000000CB000008FD
:10003000CD00000800000000CF0000089106000875
:10004000D3000008D5000008D7000008D900000838
:10005000DB000008DD000008DF000008E100000808
:10006000E3000008E5000008E7000008E9000008D8
:10007000EB000008ED000008EF000008F1000008A8
:10008000F3000008F5000008F7000008F900000878
:10009000FB000008FD000008FF0000080101000847
:1000A0000301000805010008070100080901000814
:1000B0000B0100080D0100080F01000811010008E4
:1000C000FEE7FEE7FEE7FEE7FEE7FEE7FEE7FEE708
:1000D000FEE7FEE7FEE7FEE7FEE7FEE7FEE7FEE7F8
:1000E000FEE7FEE7FEE7FEE7FEE7FEE7FEE7FEE7E8
:1000F000FEE7FEE7FEE7FEE7FEE7FEE7FEE7FEE7D8
:10010000FEE7FEE7FEE7FEE7FEE7FEE7FEE7FEE7C7
:10011000FEE70348854600F0E1F900F003B87047B8
:04012000004000207B
:1001240011488546114C20680434004201D08047B0
:10013400F9E70F480F49091A082903DB0022026076
:10014400043001600C480D49884205D0026804302F
:1001540003B4904703BCF7E700208646EC46002032
:100164000021074A9047FEE7004000201C080008D1
:1001740080000020800400201A0800081A080008E3
:04018400310200083C
:100188001EF0040F0CBFEFF30880EFF3098001495C
:0801980008470000F103000814
:1001A00082B0034600918DF807309DF90730002B8F
:1001B0000CDA009BDAB20C499DF8073003F00F030C
:1001C000043B1201D2B20B441A7609E0009BDAB26A
:1001D00006499DF907301201D2B20B4483F800237F
:1001E00000BF02B0704700BF00ED00E000E100E09A
:1001F00000B583B00190019B013BB3F1807F01D337
:1002000001230FE0094A019B013B53600F214FF08E
:10021000FF30FFF7C5FF054B00229A60034B072212
:100220001A600023184603B05DF804FB10E000E0FC
:1002300000B583B00121042000F00EFA01238DF8EF
:10024000043000238DF806304FF4407300930023F0
:100250008DF8073002238DF805306B4619460C489F
:1002600000F01BFA4FF48071094800F0BEFA4FF419
:100270000071074800F0C5FA0648FFF7B9FF0121F1
:10028000002000F009F80121012000F005F8FEE748
:0802900000080240FFDC6D00D4
:1002980082B0034600918DF807309DF80720104979
:1002A80013465B0013449B000B441B78002B14D1AE
:1002B8009DF807200A4913465B0013449B000B4432
:1002C80001221A709DF80720054913465B00134464
:1002D8009B000B440433009A1A6000BF02B07047B9
:0402E80000000020F2
:1002EC0082B003468DF807309DF807200E4913465F
:1002FC005B0013449B000B441B78012B0FD19DF822
:10030C000720094913465B0013449B000B4404333C
:10031C001B68002B01D1012302E0002300E0002325
:0C032C00184602B0704700BF000000201F
:1003380000B583B000238DF8073036E09DF807201C
:100348001E4913465B0013449B000B441B78012B8A
:1003580026D19DF807301846FFF7C4FF0346002B47
:100368000BD09DF80720154913465B0013449B00EA
:100378000B4408331B68984712E09DF807200F4983
:1003880013465B0013449B000B4404331B68591E3F
:100398000A4813465B0013449B0003440433196066
:1003A8009DF8073001338DF807309DF80730042B8E
:1003B800C4D900BF03B05DF804FB00BF00000020F3
:1003C80008B54FF40071024800F0FAF900BF08BD03
:0403D80000080240D7
:1003DC0008B54FF48071024800F0F0F900BF08BD79
:0403EC0000080240C3
:1003F00082B001902F4B1B882F4B1B682F4A136232
:100400002F4B1B78DAB22D4B83F824202D4B1B7811
:10041000DBB21A46294B9A622B4B1B68274AD362E0
:100420002A4B1B889AB2254B1A86224B1B889BB2FB
:100430001A46224B5A63264B1B889BB21A461F4B07
:100440009A63244B1B889BB21A461C4BDA63224BDF
:1004500000221A6000BF204B1B68002BFBD0019BC1
:100460001B68164A1360019B5B68144A5360019B2A
:100470009B68124A9360019BDB68104AD360019B22
:100480001B690E4A1361019B5B690C4A5361019B16
:100490009B690A4A9361019BDB69084AD3610E4B51
:1004A00000221A6000BF0C4B1B68002BFBD002B06F
:1004B000704700BF2CED00E024ED00E03C00002080
:1004C00028ED00E029ED00E038ED00E02AED00E045
:0C04D00030ED00E03CED00E07C0000207E
:1004DC0008B5154B1B68144A43F480731360124B18
:1004EC009A681149114B13408B600F4B1B680E4AD5
:1004FC0023F0885323F0011313600B4B1B680A4A3B
:10050C0023F480231360084B9B68074A23F47D0374
:10051C009360054B0022DA6000F00CF8044B4FF0AE
:10052C0000629A6000BF08BD003802400CC0FF8812
:04053C0000ED00E0EE
:1005400082B00023019300230093404B1B683F4A75
:1005500043F4803313603D4B1B6803F40033009376
:10056000019B01330193009B002B03D1019BB3F549
:10057000A04FF0D1354B1B6803F40033002B02D0A1
:100580000123009301E000230093009B012B5AD12B
:100590002F4B1B682E4A43F0040313602C4B1B683F
:1005A0002B4A43F002031360294B1B68284A43F08F
:1005B00001031360254B5B6A244A43F08053536266
:1005C000244B4FF400621A6000BF224B5B6803F0BB
:1005D0001003002BF9D11D4B1C4A9B6893601B4BE9
:1005E0001A4A9B689360194B184A9B689360174B93
:1005F0009B68164A23F47D039360144B9B68134A4F
:1006000043F411039360114B1B68104A43F080734D
:10061000136000BF0D4B1B6803F00073002BF9D073
:100620000A4B9B68094A23F003039360074B9B68BE
:10063000064A43F00303936000BF044B9B6803F03A
:100640000C030C2BF9D100BF02B0704700380240F8
:08065000003C02400070004074
:1006580082B001900B468DF803309DF80330002BD3
:1006680006D0084BDA690749019B1343CB6106E0C2
:10067800044BDA69019BDB4302491340CB6100BF9D
:0806880002B070470038024087
:0A06900008B5FFF751FE00BF08BDDA
:10069A0086B0019000910023059300230493002360
:1006AA000393002302930023059381E00122059B13
:1006BA0002FA03F30493009B1B68049A1340039302
:1006CA00039A049B9A4270D1019B1B680293059B73
:1006DA005B00032202FA03F3DB43029A13400293FC
:1006EA00009B1B791A46059B5B0002FA03F3029AE8
:1006FA0013430293019B029A1A60009B1B79012BF8
:10070A0003D0009B1B79022B35D1019B9B68029376
:10071A00059B5B00032202FA03F3DB43029A1340B0
:10072A000293009B5B791A46059B5B0002FA03F36E
:10073A00029A13430293019B029A9A60019B9B8837
:10074A009BB20293059B9BB21A4601239340DB435B
:10075A00029A13400293009B9B791A46059B9BB20F
:10076A0002FA03F39BB21A46029B13430293029BBB
:10077A009AB2019B9A80019BDB680293059B9BB20C
:10078A005B00032202FA03F3DB43029A134002934B
:10079A00009BDB791A46059B5B0002FA03F3029A77
:1007AA0013430293019B029ADA60059B0133059376
:0E07BA00059B0F2B7FF67AAF00BF06B070478D
:1007C80082B001900B46ADF80230019B9B8A9AB229
:1007D800BDF8023053409AB2019B9A8200BF02B022
:0207E800704758
:1007EA0082B001900B46ADF80230019BBDF80220A1
:0807FA001A8300BF02B0704732
:1008020082B001900B46ADF80230019BBDF8022088
:080812005A8300BF02B07047D9
:10081C00790800083C000020440000008F08000804
:10082C00000000203C0800083C0000000000000014
:10083C000000000000000000DD03000800000000C4
:10084C0000000000C90300080000000000000000C8
:10085C00000000000000000000000000000000008C
:0C086C0000000000000000000000000080
:10087800206861680834094204D0002202700130FF
:060888000139FBD17047AD
:10088E0020686168A2680C34124205D00B780370A0
:0A089E0001300131013AF9D1704731
:0400000508000113DB
:00000001FF
