:100000000C942A000C9447000C9447000C94470071
:100010000C9447000C9447000C9447000C94470044
:100020000C9447000C9447000C9447000C94090270
:100030000C9447000C9447000C9447000C94470024
:100040000C9447000C9447000C9447000C94470014
:100050000C94470011241FBECFE5D8E0DEBFCDBF12
:1000600011E0A0E6B0E0E0EBFEE002C005900D92EA
:10007000A435B107D9F721E0A4E5B1E001C01D9294
:10008000AE37B207E1F70E948A000C9456070C9431
:1000900000001092570180E008958AB31ABA8BB31A
:1000A0008FEF8BBB97B317BAB89A98B388BB94B34A
:1000B00014BA95B385BB91B311BA92B382BB80E0F9
:1000C000089580E00895EF92FF920F931F93CF93CE
:1000D00008E511E0C0E00F2EF8E7EF2EF1E0FF2E6B
:1000E000F02DF701808191810E943A048D3031F02A
:1000F000F80181938F01CF5FC33199F7EC2FF0E0C6
:10010000E85AFE4F8AE08083CF911F910F91FF90B4
:10011000EF900895E8E7F1E08FE690E09383828323
:1001200081E690E0918380830E9449009091600075
:1001300080FB95F9909360000E944D0090916000C3
:1001400080FB90F99093600082E00E9435029091CC
:10015000600080FB91F9909360000E946100909193
:10016000600080FB92F99093600084E10E94A401FA
:100170009091600080FB93F99093600042E061E011
:1001800080E00E94D5019091600080FB94F99093EB
:100190006000911148C005EA10E01F930F93C3E27D
:1001A000D1E0DF93CF930E94780486EC90E09F9398
:1001B0008F93DF93CF930E9478041F930F93DF9365
:1001C000CF930E94780478948DB79EB70C960FB6A3
:1001D000F8949EBF0FBE8DBF0F2EFBE6EF2EF1E011
:1001E000FF2EF02D04E011E00F2EF1E1AF2EF1E033
:1001F000BF2EF02D0F2EF7E2CF2EF1E0DF2EF02DE7
:100200000F2EF7E36F2EF1E07F2EF02D0F2EF0E48E
:100210004F2EF1E05F2EF02D0F2EF9E42F2EF1E09E
:100220003F2EF02D18C0C7EED0E0809160001F92E5
:100230008F93DF93CF930E9478048FE39DE023E0B8
:10024000815090402040E1F700C000000F900F90D7
:100250000F900F90EACF88E591E00E9463000F2E87
:10026000F8E58F2EF1E09F2EF02DE401CE018819E4
:10027000990929911F922F939F938F931F930F9307
:100280000E9478040F900F900F900F900F900F9096
:10029000CE15DF0559F788E591E09F938F93BF92C4
:1002A000AF920E94780464E571E088E591E00E94D5
:1002B0008601DF92CF920E947804C4E5D1E0888164
:1002C0001F928F937F926F920E94780489811F9270
:1002D0008F935F924F920E94780489811F928F932F
:1002E0003F922F920E9478048FE996E821E0815096
:1002F00090402040E1F700C000008DB79EB74296C5
:100300000FB6F8949EBF0FBE8DBFA5CFFC01DB01D9
:1003100097818681805320E1929F800D11248C93D8
:1003200094818381805320E1929F800D1124119646
:100330008C93119791818081805320E1929F800D51
:10034000112412968C930895682F70E080E090E05D
:100350000E941F032DEC3CEC4CEC5DE30E94AB03D0
:1003600020E030E244E755E40E94AB032AE037ED99
:1003700043E25CE30E94AB039B01AC0160E070E0F0
:1003800080E893E40E94810220E030E040E85FE3EF
:100390000E9482020E94EE0283B7846083BF62BF24
:1003A00089B7816089BF80E00895833058F4633055
:1003B00058F4433058F4ECE6F1E0818365834187DB
:1003C00080E0089581E0089581E0089581E0089536
:1003D000ACE6B1E080E090E0FC01EE0FFF1FEE0F15
:1003E000FF1FE459FE4F208120FF0DC012962D9172
:1003F0003C9113972115310531F0215031091396A5
:100400003C932E931297019614968330910521F711
:1004100008951F920F920FB60F9211242F933F93BE
:100420004F935F936F937F938F939F93AF93BF93FC
:10043000CF93EF93FF93F894CFB782EB82BF0E94E4
:10044000E801CFBF7894FF91EF91CF91BF91AF9129
:100450009F918F917F916F915F914F913F912F91DC
:100460000F900FBE0F901F9018958A3098F5E82FC7
:10047000F0E0EE0FFF1FEE0FFF1FE358FF4F8081EC
:100480009181A281B381880F991FAA1FBB1F880F7A
:10049000991FAA1FBB1F9C01AD01220F331F441FD0
:1004A000551F60E472E48FE090E00E941804DA01C6
:1004B000C9010197A109B10989B9892F9A2FAB2FD9
:1004C000BB2780BD88E18AB986E880BD82E08BB910
:1004D00080E0089581E008955D9BFECF8CB980E0B7
:1004E00090E008955F9BFECF5C9904C05B9902C0C9
:1004F0005A9B04C01CB880E090E008958CB190E055
:1005000008955058BB27AA270E9499020C947103A2
:100510000E94630338F00E946A0320F039F49F3F81
:1005200019F426F40C9460030EF4E095E7FB0C94A8
:100530005A03E92F0E94820358F3BA176207730720
:100540008407950720F079F4A6F50C94A4030EF423
:10055000E0950B2EBA2FA02D0B01B90190010C01D3
:10056000CA01A0011124FF27591B99F0593F50F4EB
:10057000503E68F11A16F040A22F232F342F442743
:10058000585FF3CF469537952795A795F04053953B
:10059000C9F77EF41F16BA0B620B730B840BBAF00B
:1005A0009150A1F0FF0FBB1F661F771F881FC2F776
:1005B0000EC0BA0F621F731F841F48F4879577958A
:1005C0006795B795F7959E3F08F0B0CF9395880F44
:1005D00008F09927EE0F9795879508950E948A0352
:1005E00088F09F5798F0B92F9927B751B0F0E1F0F4
:1005F000660F771F881F991F1AF0BA95C9F714C0A4
:10060000B13091F00E94A403B1E008950C94A403CA
:10061000672F782F8827B85F39F0B93FCCF38695DC
:1006200077956795B395D9F73EF490958095709539
:1006300061957F4F8F4F9F4F0895E89409C097FBB6
:100640003EF490958095709561957F4F8F4F9F4FA9
:100650009923A9F0F92F96E9BB279395F6958795ED
:1006600077956795B795F111F8CFFAF4BB0F11F4B0
:1006700060FF1BC06F5F7F4F8F4F9F4F16C0882357
:1006800011F096E911C0772321F09EE8872F762F8D
:1006900005C0662371F096E8862F70E060E02AF0CE
:1006A0009A95660F771F881FDAF7880F96958795BA
:1006B00097F9089597F99F6780E870E060E00895E2
:1006C0009FEF80EC089500240A941616170618066A
:1006D0000906089500240A94121613061406050646
:1006E0000895092E0394000C11F4882352F0BB0FD7
:1006F00040F4BF2B11F460FF04C06F5F7F4F8F4F3A
:100700009F4F089557FD9058440F551F59F05F3F74
:1007100071F04795880F97FB991F61F09F3F79F023
:1007200087950895121613061406551FF2CF4695A5
:10073000F1DF08C0161617061806991FF1CF869527
:100740007105610508940895E894BB27662777270B
:10075000CB0197F908950E94BE030C9471030E9487
:10076000630338F00E946A0320F0952311F00C9483
:100770005A030C94600311240C94A5030E94820375
:1007800070F3959FC1F3950F50E0551F629FF001E4
:10079000729FBB27F00DB11D639FAA27F00DB11DFD
:1007A000AA1F649F6627B00DA11D661F829F222786
:1007B000B00DA11D621F739FB00DA11D621F839F0D
:1007C000A00D611D221F749F3327A00D611D231FE3
:1007D000849F600D211D822F762F6A2F11249F5731
:1007E00050409AF0F1F088234AF0EE0FFF1FBB1F34
:1007F000661F771F881F91505040A9F79E3F5105F3
:1008000080F00C945A030C94A5035F3FE4F3983EE8
:10081000D4F3869577956795B795F795E7959F5F9C
:10082000C1F7FE2B880F911D9695879597F908952E
:10083000A1E21A2EAA1BBB1BFD010DC0AA1FBB1FE4
:10084000EE1FFF1FA217B307E407F50720F0A21B56
:10085000B30BE40BF50B661F771F881F991F1A94C3
:1008600069F760957095809590959B01AC01BD01ED
:10087000CF010895CF93DF93EC012B8120FF33C08C
:1008800026FF0AC02F7B2B838E819F8101969F8339
:100890008E838A8190E029C022FF0FC0E881F98110
:1008A0008081082E000C990B009719F420622B838D
:1008B0001AC03196F983E8830EC0EA85FB85099555
:1008C00097FF09C02B81019611F080E201C080E101
:1008D000822B8B8308C02E813F812F5F3F4F3F8348
:1008E0002E83992702C08FEF9FEFDF91CF9108955C
:1008F000A0E0B0E0EEE7F4E00C942F07AE014B5F10
:100900005F4FFA0161917191AF0180917A019091ED
:100910007B010E948E04E2E00C944B07ABE0B0E058
:10092000E4E9F4E00C941F076C017B018A01FC01EF
:1009300017821682838181FFCCC1CE0101963C01D2
:10094000F6019381F70193FD859193FF81917F01DA
:10095000882309F4BAC1853239F493FD859193FF58
:1009600081917F01853229F4B60190E00E948506CD
:10097000E7CF912C212C312CFFE1F315D8F08B32ED
:1009800079F038F4803279F08332A1F4232D20619C
:100990001DC08D3261F0803369F4232D216016C0B3
:1009A000832D8260382EE32DE4603E2E2AC0F32D85
:1009B000F8601DC037FC2DC020ED280F2A3040F014
:1009C0008E32B9F436FC81C1232D2064322E19C039
:1009D00036FE06C08AE0989E200D1124922E11C08A
:1009E000EAE02E9E200D1124222EF32DF0623F2EE0
:1009F00008C08C3621F4832D8068382E02C08836DA
:100A000041F4F70193FD859193FF81917F0181115D
:100A1000B3CF982F9F7D9554933028F40C5F1F4FD0
:100A20009FE399830DC0833631F0833771F08335AE
:100A300009F059C021C0F801808189830E5F1F4FE2
:100A400088248394912C530113C02801F2E04F0EA7
:100A5000511CF801A080B18036FE03C0692D70E002
:100A600002C06FEF7FEFC5010E947A064C01820140
:100A7000F32DFF773F2E16C0280122E0420E511CB5
:100A8000F801A080B18036FE03C0692D70E002C07D
:100A90006FEF7FEFC5010E946F064C01F32DF068E8
:100AA0003F2E820133FC1BC0822D90E088169906F0
:100AB000B0F4B60180E290E00E9485062A94F4CF5B
:100AC000F50137FC859137FE81915F01B60190E019
:100AD0000E94850621102A9421E0821A910881142F
:100AE000910471F7E8C0843611F0893641F5F801B8
:100AF00037FE07C060817181828193810C5F1F4F37
:100B000008C060817181072E000C880B990B0E5F65
:100B10001F4FF32DFF763F2E97FF09C090958095CC
:100B2000709561957F4F8F4F9F4FF0683F2E2AE061
:100B300030E0A3010E94C106882E861845C0853783
:100B400031F4232D2F7EB22E2AE030E025C0932DE4
:100B5000997FB92E8F36C1F018F4883579F0B5C079
:100B6000803719F0883721F0B0C0E92FE061BE2E40
:100B7000B4FE0DC0FB2DF460BF2E09C034FE0AC0C8
:100B8000292F2660B22E06C028E030E005C020E103
:100B900030E002C020E132E0F801B7FE07C060811A
:100BA0007181828193810C5F1F4F06C060817181CA
:100BB00080E090E00E5F1F4FA3010E94C106882EC7
:100BC0008618FB2DFF773F2E36FE0DC0232D2E7F7E
:100BD000A22E891458F434FE0BC032FC09C0832DB8
:100BE0008E7EA82E05C0B82CA32C03C0B82C01C043
:100BF000B92CA4FE0FC0FE01E80DF11D80818033E9
:100C000021F49A2D997EA92E09C0A2FE06C0B394A4
:100C1000B39404C08A2D867809F0B394A3FC11C064
:100C2000A0FE06C0B21488F4280C922C9B180EC0AB
:100C3000B21460F4B60180E290E00E948506B3949D
:100C4000F7CFB21418F42B1802C0982C212CA4FE54
:100C500010C0B60180E390E00E948506A2FE17C096
:100C6000A1FC03C088E790E002C088E590E0B601EF
:100C70000CC08A2D867859F0A1FE02C08BE201C01B
:100C800080E2A7FC8DE2B60190E00E9485068914FF
:100C900038F4B60180E390E00E9485069A94F7CF7D
:100CA0008A94F301E80DF11D8081B60190E00E9465
:100CB00085068110F5CF222009F442CEB60180E2EC
:100CC00090E00E9485062A94F6CFF60186819781EE
:100CD00002C08FEF9FEF2B96E2E10C943B07FC01E3
:100CE0000590615070400110D8F7809590958E0F57
:100CF0009F1F0895FC016150704001900110D8F7CA
:100D0000809590958E0F9F1F08950F931F93CF93FB
:100D1000DF93FB01238121FD03C08FEF9FEF2CC0E8
:100D200022FF16C04681578124813581421753071F
:100D300044F4A081B1819D012F5F3F4F3183208317
:100D40008C93268137812F5F3F4F3783268314C0D2
:100D50008B01EC01FB010084F185E02D0995892BC5
:100D6000E1F6D80116968D919C91179701961796EA
:100D70009C938E931697CE01DF91CF911F910F9187
:100D80000895FA01AA27283051F1203181F1E89421
:100D90006F936E7F6E5F7F4F8F4F9F4FAF4FB1E06E
:100DA0003ED0B4E03CD0670F781F891F9A1FA11D69
:100DB000680F791F8A1F911DA11D6A0F711D811D6A
:100DC000911DA11D20D009F468943F912AE0269F2F
:100DD00011243019305D3193DEF6CF010895462F8E
:100DE0004770405D4193B3E00FD0C9F7F6CF462F6F
:100DF0004F70405D4A3318F0495D31FD40524193D8
:100E000002D0A9F7EACFB4E0A69597958795779594
:100E10006795BA95C9F700976105710508959B011B
:100E2000AC010A2E06945795479537952795BA95A4
:100E3000C9F7620F731F841F951FA01D08952F927D
:100E40003F924F925F926F927F928F929F92AF925A
:100E5000BF92CF92DF92EF92FF920F931F93CF93A7
:100E6000DF93CDB7DEB7CA1BDB0B0FB6F894DEBF3E
:100E70000FBECDBF09942A88398848885F846E8464
:100E80007D848C849B84AA84B984C884DF80EE80AE
:100E9000FD800C811B81AA81B981CE0FD11D0FB6B7
:100EA000F894DEBF0FBECDBFED010895F894FFCFDB
:100EB0003F0000000100000000000072020000007E
:100EC000000002000000006C020000000060090049
:100ED00000C01200008025000040380000004B00D8
:100EE00000807000000096000000E10000002C016E
:100EF0000000C201002D2D2D2D2D2D2D2D2D2D2D40
:100F00002D2D2D2D2D2D2D2D2D2D2D2D2D2D2D2D11
:100F10002D2D2D2D2D007C20202020202020494EFD
:100F2000495420535543434553532020202020202B
:100F300020202020207C00494E4954204641494C25
:100F400045442E204572726F7220436F64652025E0
:100F500078680D00627566665B25645D3A25630DF1
:100F60000052656365697665642073657175656EA9
:100F700063653A25730D004461746120746F2077B6
:100F8000726974653A0D007365633A2025640D003B
:100F90006D696E3A2025640D00686F75723A2025E0
:040FA000640D0000DC
:00000001FF
