:020000040800F2
:100000000040002013010008C10000088901000819
:10001000C5000008C7000008C90000080000000073
:10002000000000000000000000000000CB000008FD
:10003000CD00000800000000CF000008D10000083B
:10004000D3000008D5000008D7000008D900000838
:10005000DB000008DD000008DF000008E100000808
:10006000E3000008E5000008E7000008E9000008D8
:10007000EB000008ED000008EF000008F1000008A8
:10008000F3000008F5000008F7000008F900000878
:10009000FB000008FD000008FF0000080101000847
:1000A0000301000805010008070100080901000814
:1000B0000B0100080D0100080F01000811010008E4
:1000C000FEE7FEE7FEE7FEE7FEE7FEE7FEE7FEE708
:1000D000FEE7FEE7FEE7FEE7FEE7FEE7FEE7FEE7F8
:1000E000FEE7FEE7FEE7FEE7FEE7FEE7FEE7FEE7E8
:1000F000FEE7FEE7FEE7FEE7FEE7FEE7FEE7FEE7D8
:10010000FEE7FEE7FEE7FEE7FEE7FEE7FEE7FEE7C7
:10011000FEE70348854600F047F900F003B8704752
:04012000004000207B
:1001240011488546114C20680434004201D08047B0
:10013400F9E70F480F49091A082903DB0022026076
:10014400043001600C480D49884205D0026804302F
:1001540003B4904703BCF7E700208646EC46002032
:100164000021074A9047FEE700400020880B000862
:100174006800002068040020C7080008C7080008B9
:04018400A1010008CD
:100188001EF0040F0CBFEFF30880EFF3098001495C
:0801980008470000BD02000849
:1001A00000B583B000F01CF800F03AF80A4B1B6869
:1001B000184600F089FB0A2000F066F80D2000F0D8
:1001C00063F80023019302E0019B01330193019B3B
:1001D000024A9342F8D9E9E71C0000205FAE0A000A
:1001E00000B583B00121012000F072FA02238DF8DE
:1001F000043000238DF806304FF400730093012380
:100200008DF8073002238DF805306B4619460348F8
:1002100000F06DFB00BF03B05DF804FB000002407E
:1002200000B585B001214FF4804000F06DFA4FF425
:10023000165300930023ADF80C300823ADF80A30B4
:100240000023ADF808300023ADF806300023ADF8E8
:1002500004306B4619460A4800F072FA0722092159
:10026000084800F0DBFB0121054800F024FC0121D7
:10027000034800F03DFC00BF05B05DF804FB00BF83
:080280000038014000000240BB
:1002880000B583B003468DF8073000BF80210848C9
:1002980000F058FC0346002BF8D09DF807309BB2BD
:1002A8001946034800F03FFC00BF03B05DF804FBAB
:0402B80000380140C9
:1002BC0082B001902F4B1B882F4B1B682F4A136267
:1002CC002F4B1B78DAB22D4B83F824202D4B1B7847
:1002DC00DBB21A46294B9A622B4B1B68274AD36216
:1002EC002A4B1B889AB2254B1A86224B1B889BB231
:1002FC001A46224B5A63264B1B889BB21A461F4B3D
:10030C009A63244B1B889BB21A461C4BDA63224B14
:10031C0000221A6000BF204B1B68002BFBD0019BF6
:10032C001B68164A1360019B5B68144A5360019B5F
:10033C009B68124A9360019BDB68104AD360019B57
:10034C001B690E4A1361019B5B690C4A5361019B4B
:10035C009B690A4A9361019BDB69084AD3610E4B86
:10036C0000221A6000BF0C4B1B68002BFBD002B0A4
:10037C00704700BF2CED00E024ED00E020000020D1
:10038C0028ED00E029ED00E038ED00E02AED00E07A
:0C039C0030ED00E03CED00E060000020CF
:1003A80008B5154B1B68144A43F480731360124B4D
:1003B8009A681149114B13408B600F4B1B680E4A0A
:1003C80023F0885323F0011313600B4B1B680A4A70
:1003D80023F480231360084B9B68074A23F47D03AA
:1003E8009360054B0022DA6000F00CF8044B4FF0E4
:1003F80000629A6000BF08BD003802400CC0FF8848
:0404080000ED00E023
:10040C0082B00023019300230093404B1B683F4AAA
:10041C0043F4803313603D4B1B6803F400330093AB
:10042C00019B01330193009B002B03D1019BB3F57E
:10043C00A04FF0D1354B1B6803F40033002B02D0D6
:10044C000123009301E000230093009B012B5AD160
:10045C002F4B1B682E4A43F0040313602C4B1B6874
:10046C002B4A43F002031360294B1B68284A43F0C4
:10047C0001031360254B5B6A244A43F0805353629B
:10048C00244B4FF400621A6000BF224B5B6803F0F0
:10049C001003002BF9D11D4B1C4A9B6893601B4B1E
:1004AC001A4A9B689360194B184A9B689360174BC8
:1004BC009B68164A23F47D039360144B9B68134A84
:1004CC0043F411039360114B1B68104A43F0807383
:1004DC00136000BF0D4B1B6803F00073002BF9D0A9
:1004EC000A4B9B68094A23F003039360074B9B68F4
:1004FC00064A43F00303936000BF044B9B6803F070
:10050C000C030C2BF9D100BF02B07047003802402D
:08051C00003C024000700040A9
:1005240088B00190002307930023069300230593CA
:100534000023049300230393002302935E4B9B68E0
:1005440003F00C030793079B0C2B65D801A252F808
:1005540023F000BF8D0500081D0600081D060008D5
:100564001D060008AD0500081D0600081D0600084C
:100574001D060008B50500081D0600081D06000834
:100584001D060008BD0500084B4B5B685B0B03F0C0
:1005940007030293029B01334FF4004202FA03F370
:1005A4001A46019B1A6047E0019B444A1A6043E0E3
:1005B400019B434A1A603FE03F4B9B6803F470136E
:1005C40006933D4B9B6803F440030593069B9B0CE9
:1005D4003C4AD35CDBB20693059B9B0D0133059328
:1005E400354B9B6803F480330493049B002B09D19F
:1005F400069B324A02FB03F2059BB2FBF3F2019B1A
:100604001A6019E0069B2E4A02FB03F2059BB2FB1B
:10061400F3F2019B1A600FE0274B5B685B0B03F05E
:1006240007030293029B01334FF4004202FA03F3DF
:100634001A46019B1A6000BF1F4B9B6803F0F0032E
:100644000793079B1B0907931F4A079B13441B78B7
:10065400DBB20393019B1A68039BDA40019B5A6047
:10066400154B9B6803F4E0630793079B1B0A0793EE
:10067400154A079B13441B78DBB20393019B5A680A
:10068400039BDA40019B9A600B4B9B6803F4605315
:100694000793079BDB0A07930B4A079B13441B78BA
:1006A400DBB20393019B5A68039BDA40019BDA6037
:1006B40000BF08B0704700BF003802400024F400B7
:0C06C40000127A0010000020000000204E
:1006D00082B001900B468DF803309DF80330002B5B
:1006E00006D0084BDA690749019B1343CB6106E04A
:1006F000044BDA69019BDB4302491340CB6100BF25
:0807000002B07047003802400E
:1007080082B001900B468DF803309DF80330002B22
:1007180006D0084B1A6A0749019B13430B6206E08F
:10072800044B1A6A019BDB43024913400B6200BF6A
:0807380002B0704700380240D6
:1007400000B58BB00190009100230993002308931A
:100750000023079300230693019B1B8A9BB20993F6
:10076000099B23F440530993009BDB881A46099B9D
:1007700013430993099B9AB2019B1A82019B9B899F
:100780009BB20993099B23F4B05323F00C03099304
:10079000009B9A88009B1B8913439AB2009B5B893C
:1007A00013439BB21A46099B13430993099B9AB2C0
:1007B000019B9A81019B9B8A9BB20993099B23F41D
:1007C00040730993009B9B891A46099B1343099325
:1007D000099B9AB2019B9A8202AB1846FFF7A2FED0
:1007E000019B2E4A934202D1059B089301E0049B92
:1007F0000893019B9B899BB21BB2002B0CDA089AD1
:1008000013469B0013449A001A44009B1B685B002C
:10081000B2FBF3F307930BE0089A13469B001344D3
:100820009A001A44009B1B689B00B2FBF3F30793EA
:10083000079B1B4AA2FB03235B091B010993099B2E
:100840001B09642202FB03F3079AD31A0693019B48
:100850009B899BB21BB2002B0CDA069BDB00323368
:100860000F4AA2FB03235B0903F00703099A134312
:1008700009930BE0069B1B013233094AA2FB0323B9
:100880005B0903F00F03099A13430993099B9AB27A
:10089000019B1A8100BF0BB05DF804FB00380140DA
:0408A0001F85EB5174
:1008A40048656C6C6F2053544D33320043616E279E
:1008B4007420616C6C6F63617465206D656D6F721B
:0308C400790A00AE
:1008C80000B583B0019006E0019B5A1C01921B7889
:1008D8001846FFF7D5FC019B1B78002BF4D100BF0D
:0608E80003B05DF804FB03
:1008EE0086B001900091002305930023049300230A
:1008FE000393002302930023059381E00122059BBD
:10090E0002FA03F30493009B1B68049A13400393AB
:10091E00039A049B9A4270D1019B1B680293059B1C
:10092E005B00032202FA03F3DB43029A13400293A5
:10093E00009B1B791A46059B5B0002FA03F3029A91
:10094E0013430293019B029A1A60009B1B79012BA1
:10095E0003D0009B1B79022B35D1019B9B68029320
:10096E00059B5B00032202FA03F3DB43029A13405A
:10097E000293009B5B791A46059B5B0002FA03F318
:10098E00029A13430293019B029A9A60019B9B88E1
:10099E009BB20293059B9BB21A4601239340DB4305
:1009AE00029A13400293009B9B791A46059B9BB2B9
:1009BE0002FA03F39BB21A46029B13430293029B65
:1009CE009AB2019B9A80019BDB680293059B9BB2B6
:1009DE005B00032202FA03F3DB43029A13400293F5
:1009EE00009BDB791A46059B5B0002FA03F3029A21
:1009FE0013430293019B029ADA60059B0133059320
:0E0A0E00059B0F2B7FF67AAF00BF06B0704736
:100A1C0084B001900B46ADF8023013468DF80130CE
:100A2C0000230393002302939DF80120BDF80230AC
:100A3C0003F007039B0002FA03F30393BDF80230A3
:100A4C00DB089BB21A46019B083253F82220BDF8F2
:100A5C00023003F007039B000F2101FA03F3DB4381
:100A6C00BDF80210C90889B2084602EA0301019BCD
:100A7C0000F1080243F82210BDF80230DB089BB2EB
:100A8C001A46019B083253F82230039A13430293FF
:100A9C00BDF80230DB089BB21A46019B0832029962
:0A0AAC0043F8221000BF04B07047A9
:100AB60082B001900B468DF803309DF80330002B71
:100AC60008D0019B9B899BB243F400539AB2019BC9
:100AD6009A8107E0019B9B899BB223F400539AB24B
:0A0AE600019B9A8100BF02B0704727
:100AF00082B001900B468DF803309DF80330002B37
:100B00000AD0019B9B899BB26FEA43436FEA534330
:100B10009AB2019B9A8107E0019B9B899BB2C3F328
:0E0B20000E039AB2019B9A8100BF02B070478B
:100B2E0082B001900B46ADF80230BDF80230C3F32F
:0E0B3E0008039AB2019B9A8000BF02B0704774
:100B4C0084B001900B46ADF8023000238DF80F30C5
:100B5C00019B1B889AB2BDF8023013409BB2002B4C
:100B6C0003D001238DF80F3002E000238DF80F30F5
:0A0B7C009DF80F30184604B07047D2
:100B8800D70B00082000002044000000ED0B0008EF
:100B980000000020B80B000819000000ED0B000849
:100BA8001C000020D10B0008040000000000000019
:100BB80000000000010203040102030406070809FB
:0D0BC800030406080C10182030A4080008D3
:100BD600206861680834094204D00022027001309E
:060BE6000139FBD170474C
:100BEC0020686168A2680C34124205D00B7803703F
:0A0BFC0001300131013AF9D17047D0
:0400000508000113DB
:00000001FF
