:100000000C942A000C9434000C9434000C943400AA
:100010000C9434000C9434000C9434000C94340090
:100020000C9434000C9434000C9434000C94340080
:100030000C9434000C9434000C9434000C94340070
:100040000C9434000C9434000C9434000C94340060
:100050000C94340011241FBECFE5D8E0DEBFCDBF25
:100060000E9436000C9443000C94000081E087BB92
:1000700091E088B3892788BBEBE7F2E93197F1F784
:0A00800000C00000F6CFF894FFCF97
:00000001FF
