S00F0000766F6C74416D702E7372656332
S11300008FC0A9C0A8C0A7C0A6C0A5C0A4C0A3C0D3
S1130010A2C038C5A0C09FC09EC09DC0DAC09BC00E
S11300209AC099C098C000407A10F35A00A0724E4A
S113003018090010A5D4E80000E87648170000E489
S11300400B54020000CA9A3B000000E1F5050000D1
S113005080969800000040420F000000A086010036
S11300600000102700000000E80300000000640006
S1130070000000000A000000000001000000000071
S11300802C76D888DC674F0823DFC1DFAE59E1B195
S1130090B796E5E3E453C63AE651997696E8E6C2A4
S11300A08426EB898C9B62ED407C6FFCEFBC9C9FAB
S11300B040F2BAA56FA5F490055A2AF75C936B6CCD
S11300C0F9676DC11BFCE0E40D47FEF520E6B500C1
S11300D0D0ED902E0300943577050080841E08002F
S11300E000204E0A000000C80C333333330F986EDF
S11300F012831141EF8D2114893BE65516CFFEE69C
S1130100DB18D1844B381BF77C1D901DA4BBE42461
S1130110203284725E228100C9F124ECA1E53D27DE
S113012011241FBECFE5D4E0DEBFCDBF11E0A0E6B1
S1130130B0E0EEEFF9E102C005900D92A436B107EC
S1130140D9F721E0A4E6B1E001C01D92AD3BB207AE
S1130150E1F789D252CC54CFFB01882319F08130C6
S113016069F015C087B1806C87B98AE097EDA3E286
S1130170B0E482839383A483B58309C03E9A80E06C
S113018090E0A0EAB0E482839383A483B58386B12C
S11301908C6886B9369A80E094E0918380838EE2FD
S11301A09AEBA8EDB0E486839783A087B18785E1B5
S11301B09CEBACE9BFE382879387A487B58786EF7E
S11301C098E2ACE1BFE386879787A08BB18B80E090
S11301D008951F920F920FB60F9211242F933F93FD
S11301E08F939F93AF93BF93EF93FF93F8949FB72D
S11301F080918C01882319F08130C1F030C0A4E6CD
S1130200B1E09996EC91999781E08E0F99968C9331
S113021024B135B1F0E0EE0FFF1FEC59FE4F3183EE
S113022020838A30E1F410928D0119C0A4E6B1E074
S11302309A96EC919A9781E08E0F9A968C9324B1BA
S113024035B1F0E0EE0FFF1FE858FE4F31832083F5
S11302508A3011F410928E0110928C013898369ADB
S11302609FBF7894FF91EF91BF91AF919F918F9130
S11302703F912F910F900FBE0F901F90189584E619
S113028091E008950F931F93CF93DF93CDB7DEB71B
S113029064970FB6F894DEBF0FBECDBFFC0194E1A6
S11302A0DE01119601900D929A95E1F769E0AE0195
S11302B04D5E5F4F12C081919191208131818217EF
S11302C0930730F4DF0112972D933C93918380833D
S11302D04E175F0781F7615029F08E010F5F1F4FA2
S11302E0F801E9CF1A8219821C8A1B8A9E012B5EAF
S11302F03F4F60E070E0F801819191918F01680FA8
S1130300791F2E173F07B9F780E090E01BD520E056
S113031030E040E05EE3A4D564960FB6F894DEBF07
S11303200FBECDBFDF91CF911F910F91089517BAE2
S11303309FEF98BBA59A85B38C6785BB11BA92BB16
S113034080E0089587B3876087BB0895882319F0F8
S1130350813029F0089587B38F7087BB089587B3E0
S1130360806F87BB0895C29886E08A95F1F700C034
S1130370C29A86E08A95F1F700C0C29886E08A9511
S1130380F1F700C00895882319F0813019F0089519
S1130390C1980895C19A0895882319F0813019F0FD
S11303A00895C0980895C09A089580E0CFDF81E051
S11303B0EADF80E0F1DF24E6C29A86E08A95F1F76D
S11303C000C096B3907FC2989295C29A86E08A95AF
S11303D0F1F700C086B3807F892BC2988295882369
S11303E014F4215049F78095881F8827881F0895A1
S11303F0CF93C82F88B39C2F907F8F70892B88BB95
S1130400B2DF8C2F829598B3807F9F70892B88BB35
S1130410AADFCF910895CF93DF93D82FC6DFC82FDB
S1130420882341F081E092DF80E0ADDF80E0B4DF3B
S11304308D2FDEDF8C2FDF91CF910895CF93DF9343
S1130440D82FB3DFC82F882341F081E07FDF80E01D
S11304509ADF81E0A1DF8D2FCBDF8C2FDF91CF914D
S1130460089570DF81E072DF80E08DDF80E094DF4B
S113047088E2BEDF8FE0CFDF81110DC02091BB0188
S11304803091BC0148E150E061E070E085EA90E021
S1130490D6D581E0089581E0BEDF81110DC02091A1
S11304A0BB013091BC0148E150E061E070E08EEBAB
S11304B090E0C5D581E0089586E0ADDF81110DC0DF
S11304C02091BB013091BC0148E150E061E070E053
S11304D087ED90E0B4D581E0089580E00895982FE9
S11304E09F7D91549A3150F090ED980F9C3030F0EC
S11304F0803221F0982F9D7F9C3279F49FDF811107
S113050017C02091BB013091BC0142E150E061E091
S113051070E080EF90E093D50BC02091BB01309147
S1130520BC014BE050E061E070E083E091E087D5EE
S113053080E090E00895882319F0813029F008952F
S1130540862F806868DF0895862F806C64DF0895A5
S1130550AF92BF92CF92DF92EF92FF920F931F93CD
S1130560CF93DF93A82EB62EBA0180E090E0EAD3B1
S11305706B017C0127E137EB41ED58E371D4B6D32D
S1130580662319F0C0E3C60F01C0C0E26B2D8A2DAB
S1130590D2DF07EB11E0F801628173818C2F90E0C8
S11305A012D52FE632E143E85AE3C701B60158D425
S11305B09DD3CDEC6C9F812D1124869586958695CF
S11305C0880F982F990F990F890F681B862FF801B0
S11305D062817381805D90E0F6D42AE037ED43E2D6
S11305E05CE3C701B6013CD481D36C9FD12D1124A7
S11305F0D695D695D695DD0F8D2F880F880FD80FF9
S11306006D1BD62F63E06B0D8A2D95DFF801628197
S1130610738180E38D0F90E0D6D42DEC3CEC4CEC50
S11306205DE3C701B6011CD461D36C9F812D1124F5
S1130630869586958695880FC82FCC0FCC0F8C0F86
S1130640681B862FF80162817381805D90E0BBD4C2
S1130650DF91CF911F910F91FF90EF90DF90CF909A
S1130660BF90AF900895E7EBF1E08EE690E09583BC
S1130670848380E690E09383828382E02ED29091FB
S11306807C0080FB90F990937C0051DE90917C007B
S113069080FB91F990937C00E4DE90917C0080FBD8
S11306A092F990937C0069E971E081E055DD9091C5
S11306B07C0080FB93F990937C0084E138D1909185
S11306C07C0080FB94F990937C0042E061E080E040
S11306D058D190917C0080FB95F990937C00911106
S11306E08AC0C7EBD1E02C813D8142E150E061E05A
S11306F070E08FE091E0A3D42C813D8142E150E091
S113070061E070E082E291E09AD42C813D8142E183
S113071050E061E070E08FE091E091D460E080E02F
S11307200ADF6A817B8186E590E04DD46A817B8112
S11307308AE390E048D46A817B8189E390E043D4E2
S11307406A817B8189E390E03ED46A817B818CE27B
S113075090E039D46A817B8189E390E034D46A8162
S11307607B8189E390E02FD46A817B8185E590E0E9
S11307702AD460E081E0DFDE6A817B8183E490E05B
S113078022D46A817B818AE390E01DD46A817B81D3
S113079089E390E018D46A817B8189E390E013D4E3
S11307A06A817B818CE290E00ED46A817B8189E34B
S11307B090E009D46A817B8189E390E004D46A8162
S11307C07B8181E490E0FFD37894C9E9D1E00F2ED6
S11307D0F6E57F2EF02D0F2EF2E5CF2EF1E0DF2E81
S11307E0F02D0F2EF7EBEF2EF1E0FF2EF02D689495
S11307F0662465F81FC005E311E0C7EBD1E08091E2
S11308007C001F928F931F930F938D818F938C8104
S11308108F93CAD32FE38DE093E021508040904022
S1130820E1F700C000000F900F900F900F900F9011
S11308300F90E5CF6AE081E0B7D081E0EAD0811182
S113084020C081E0D1D06AE081E0AED018DD1ADDAD
S11308502A813B814C815D8103D32E813F81488570
S11308605985FED220E030E040E85AE3F9D220E096
S113087030E04AE754E4F4D239D2AB0162E080E0DC
S113088067DE64E680E090D080E0C3D081113FC091
S1130890ABD064E680E088D0F2DCF4DC2A813B81D2
S11308A04C815D81DDD22E813F8148855985D8D226
S11308B04B015C016881798180E090E043D29B0127
S11308C0AC01C501B401AAD10FE811E022E044E073
S11308D04CD31F927F929F938F93DF92CF92F70115
S11308E085818F9384818F935FD3F7012481358130
S11308F042E150E061E070E08FE091E0A0D38DB779
S11309009EB708960FB6F8949EBF0FBE8DBF69E1DF
S113091082E04AD082E07DD081118CCF82E064D025
S113092069E182E041D085B3862585BB83CF682FFA
S113093070E080E090E008D22DEC3CEC4CEC5DE300
S11309408FD220E030E244E755E48AD22AE037ED42
S113095043E25CE385D29B01AC0160E070E080E897
S113096093E4F7D020E030E040E85FE3F3D0BED179
S113097083B7846083BF62BF89B7816089BF80E029
S11309800895833058F4633058F4433058F4EBEA54
S1130990F1E081836583418780E0089581E00895D3
S11309A081E0089581E00895F894833060F4E82F9D
S11309B0F0E0DF01AA0FBB1FAA0FBB1FA555BE4F56
S11309C09C9190FF03C0789481E00895EE0FFF1F7F
S11309D0EE0FFF1FE555FE4F90819160908370E00C
S11309E07383628378940895F894833018F078942C
S11309F081E00895E82FF0E0EE0FFF1FEE0FFF1FD8
S1130A00E555FE4F90819E7F9083138212827894E5
S1130A100895F894833018F078948FEF0895E82FB0
S1130A20F0E0EE0FFF1FEE0FFF1FE555FE4F828132
S1130A309381892B19F4789480E00895789481E067
S1130A400895ABEAB1E080E090E0FC01EE0FFF1FF7
S1130A50EE0FFF1FE555FE4F208120FF0DC01296BB
S1130A602D913C9113972115310531F02150310915
S1130A7013963C932E931297019614968330910506
S1130A8021F708951F920F920FB60F9211242F93FE
S1130A903F934F935F936F937F938F939F93AF9302
S1130AA0BF93CF93EF93FF93F894CFB782EB82BFBA
S1130AB0C8DFCFBF7894FF91EF91CF91BF91AF91F1
S1130AC09F918F917F916F915F914F913F912F9162
S1130AD00F900FBE0F901F9018958A3090F5E82F55
S1130AE0F0E0EE0FFF1FEE0FFF1FE358FF4F808172
S1130AF09181A281B381880F991FAA1FBB1F880F00
S1130B00991FAA1FBB1F9C01AD01220F331F441F55
S1130B10551F60E472E48FE090E005D2DA01C90168
S1130B200197A109B10989B9892F9A2FAB2FBB2746
S1130B3080BD88E98AB986E880BD82E08BB980E00F
S1130B40089581E008955D9BFECF8CB980E090E02C
S1130B5008955058BB27AA270ED048C139D130F088
S1130B603ED120F031F49F3F11F41EF42EC10EF457
S1130B70E095E7FB24C1E92F4AD180F3BA17620755
S1130B8073078407950718F071F49EF562C10EF49B
S1130B90E0950B2EBA2FA02D0B01B90190010C0189
S1130BA0CA01A0011124FF27591B99F0593F50F4A1
S1130BB0503E68F11A16F040A22F232F342F4427F9
S1130BC0585FF3CF469537952795A795F0405395F1
S1130BD0C9F77EF41F16BA0B620B730B840BBAF0C1
S1130BE09150A1F0FF0FBB1F661F771F881FC2F72C
S1130BF00EC0BA0F621F731F841F48F48795779540
S1130C006795B795F7959E3F08F0B3CF9395880FF6
S1130C1008F09927EE0F9795879508950CD0E6C0B4
S1130C20DED040F0D5D030F021F45F3F19F0C7C0DA
S1130C30511110C1CAC0EBD098F39923C9F35523BD
S1130C40B1F3951B550BBB27AA27621773078407BB
S1130C5038F09F5F5F4F220F331F441FAA1FA9F371
S1130C6033D00E2E3AF0E0E830D091505040E69563
S1130C70001CCAF729D0FE2F27D0660F771F881FC4
S1130C80BB1F261737074807AB07B0E809F0BB0BB3
S1130C90802DBF01FF2793585F4F2AF09E3F5105D7
S1130CA068F08DC0D7C05F3FECF3983EDCF38695C7
S1130CB077956795B795F7959F5FC9F7880F911D4D
S1130CC09695879597F90895E1E0660F771F881F39
S1130CD0BB1F621773078407BA0720F0621B730BEC
S1130CE0840BBA0BEE1F88F7E095089598D088F02E
S1130CF09F5790F0B92F9927B751A0F0D1F0660F04
S1130D00771F881F991F1AF0BA95C9F712C0B1301E
S1130D1081F09FD0B1E008959CC0672F782F882779
S1130D20B85F39F0B93FCCF3869577956795B3955D
S1130D30D9F73EF490958095709561957F4F8F4FCC
S1130D409F4F0895E89409C097FB3EF490958095D1
S1130D50709561957F4F8F4F9F4F9923A9F0F92F7D
S1130D6096E9BB279395F695879577956795B795FB
S1130D70F111F8CFFAF4BB0F11F460FF1BC06F5FE1
S1130D807F4F8F4F9F4F16C0882311F096E911C0F3
S1130D90772321F09EE8872F762F05C0662371F014
S1130DA096E8862F70E060E02AF09A95660F771F28
S1130DB0881FDAF7880F9695879597F9089597F91C
S1130DC09F6780E870E060E008959FEF80EC0895ED
S1130DD000240A9416161706180609060895002416
S1130DE00A9412161306140605060895092E039490
S1130DF0000C11F4882352F0BB0F40F4BF2B11F404
S1130E0060FF04C06F5F7F4F8F4F9F4F089557FD62
S1130E109058440F551F59F05F3F71F04795880F64
S1130E2097FB991F61F09F3F79F0879508951216FB
S1130E3013061406551FF2CF4695F1DF08C01616A7
S1130E4017061806991FF1CF869571056105089458
S1130E500895E894BB2766277727CB0197F908956F
S1130E600BD0C4CFB5DF28F0BADF18F0952309F012
S1130E70A6CFABCF1124EECFCADFA0F3959FD1F359
S1130E80950F50E0551F629FF001729FBB27F00D34
S1130E90B11D639FAA27F00DB11DAA1F649F662789
S1130EA0B00DA11D661F829F2227B00DA11D621FD8
S1130EB0739FB00DA11D621F839FA00D611D221F92
S1130EC0749F3327A00D611D231F849F600D211D76
S1130ED0822F762F6A2F11249F5750408AF0E1F019
S1130EE088234AF0EE0FFF1FBB1F661F771F881F62
S1130EF091505040A9F79E3F510570F060CFAACFA2
S1130F005F3FECF3983EDCF3869577956795B7954C
S1130F10F795E7959F5FC1F7FE2B880F911D969576
S1130F20879597F90895A1E21A2EAA1BBB1BFD0110
S1130F300DC0AA1FBB1FEE1FFF1FA217B307E407B4
S1130F40F50720F0A21BB30BE40BF50B661F771F0C
S1130F50881F991F1A9469F76095709580959095EC
S1130F609B01AC01BD01CF010895EF920F931F9334
S1130F70CF93DF93E80147FD02C034E001C034E1C0
S1130F80042E000C550B57FF03C051954195510990
S1130F90E32E022F242FAE0156D2CE01DF91CF9142
S1130FA01F910F91EF900895A0E0B0E0E9EDF7E014
S1130FB0FDC4AE01475F5F4F6F8178858D819E814F
S1130FC070D0E2E00FC50F931F93CF93DF93FB0123
S1130FD0238121FD03C08FEF9FEF2CC022FF16C099
S1130FE046815781248135814217530744F4A081F7
S1130FF0B1819D012F5F3F4F318320838C932681E4
S113100037812F5F3F4F3783268314C08B01EC0158
S1131010FB010084F185E02D0995892BE1F6D801C7
S113102016968D919C911797019617969C938E9383
S11310301697CE01DF91CF911F910F910895A0E0F3
S1131040B0E0E4E2F8E0A8C45B014A017901D90107
S113105013962C9121FF1DC0C0E0D0E0C815D9051E
S1131060D9F08C016C01CA0CDB1CC8010C151D05E0
S113107071F00F5F1F4FD7011896ED91FC911997EE
S1131080B701DC018C910995892B79F305C0219670
S1131090E5CF80E090E001C0CE01CDB7DEB7ECE053
S11310A097C4ABE0B0E0E6E5F8E070C46C017B0106
S11310B08A01FC0117821682838181FFBFC1CE01A0
S11310C001963C01F6019381F70193FD859193FF0D
S11310D081917F01882309F4ADC1853239F493FDF0
S11310E0859193FF81917F01853221F4B60190E0CF
S11310F06ADFE8CF912C212C312CFFE1F315D8F0D5
S11311008B3279F038F4803279F08332A1F4232DD4
S113111020611DC08D3261F0803369F4232D21607C
S113112016C0832D8260382EE32DE4603E2E2AC043
S1131130F32DF8601DC037FC2DC020ED280F2A3098
S113114040F08E32B9F436FC75C1232D2064322E62
S113115019C036FE06C08AE0989E200D1124922EF6
S113116011C0EAE02E9E200D1124222EF32DF062F0
S11311703F2E08C08C3621F4832D8068382E02C09F
S1131180883641F4F70193FD859193FF81917F01A6
S11311908111B3CF982F9F7D9554933028F40C5F21
S11311A01F4F9FE399830DC0833631F0833771F06D
S11311B0833509F055C020C0F801808189830E5F12
S11311C01F4F88248394912C530112C02801F2E00C
S11311D04F0E511CF801A080B18036FE03C0692D6A
S11311E070E002C06FEF7FEFC50167D34C0182014D
S11311F0F32DFF773F2E15C0280122E0420E511C2B
S1131200F801A080B18036FE03C0692D70E002C0F1
S11312106FEF7FEFC50146D34C01F32DF0683F2EED
S1131220820133FC19C0822D90E088169906A0F43F
S1131230B60180E290E0C7DE2A94F5CFF50137FCD1
S1131240859137FE81915F01B60190E0BCDE2110EB
S11312502A9421E0821A91088114910479F7E1C05B
S1131260843611F0893639F5F80137FE07C06081FC
S11312707181828193810C5F1F4F08C060817181ED
S1131280072E000C880B990B0E5F1F4FF32DFF7672
S11312903F2E97FF09C090958095709561957F4F7B
S11312A08F4F9F4FF0683F2E2AE030E0A30110D308
S11312B0882E861844C0853731F4232D2F7EB22E14
S11312C02AE030E025C0932D997FB92E8F36C1F0E6
S11312D018F4883579F0AEC0803719F0883721F0DA
S11312E0A9C0E92FE061BE2EB4FE0DC0FB2DF46051
S11312F0BF2E09C034FE0AC0292F2660B22E06C0B4
S113130028E030E005C020E130E002C020E132E016
S1131310F801B7FE07C060817181828193810C5FFF
S11313201F4F06C06081718180E090E00E5F1F4F07
S1131330A301CED2882E8618FB2DFF773F2E36FED2
S11313400DC0232D2E7FA22E891458F434FE0BC019
S113135032FC09C0832D8E7EA82E05C0B82CA32C88
S113136003C0B82C01C0B92CA4FE0FC0FE01E80DC7
S1131370F11D8081803321F49A2D997EA92E09C014
S1131380A2FE06C0B394B39404C08A2D867809F0F3
S1131390B394A3FC10C0A0FE06C0B21480F4280CC1
S11313A0922C9B180DC0B21458F4B60180E290E060
S11313B00ADEB394F8CFB21418F42B1802C0982C98
S11313C0212CA4FE0FC0B60180E390E0FCDDA2FE58
S11313D016C0A1FC03C088E790E002C088E590E055
S11313E0B6010CC08A2D867851F0A1FE02C08BE2B2
S11313F001C080E2A7FC8DE2B60190E0E4DD89142F
S113140030F4B60180E390E0DEDD9A94F8CF8A945C
S1131410F301E80DF11D8081B60190E0D4DD811067
S1131420F6CF222009F44ECEB60180E290E0CBDD67
S11314302A94F7CFF6018681978102C08FEF9FEF40
S11314402B96E2E1BFC2A9E0B0E0E8E2FAE0A4C270
S11314506A01122FB02E2BE3201720F0FF24F394FF
S1131460F00E02C02CE3F22E0F2D27E0AE014F5FE9
S11314705F4F40D1BC014981842F8970813031F0A4
S1131480E1FC06C0E0FE06C090E205C09DE203C098
S11314909BE201C090E05E2D507143FF3CC091116E
S11314A002C083E001C084E0811718F4212F281BB7
S11314B001C020E051110BC0F601822F30E28823D5
S11314C019F031938150FBCFC20ED11C20E0992337
S11314D029F0D6019C93F60131966F01C60103965B
S11314E0E2FE0AC03EE4D6013C9341E411964C93DB
S11314F0119712963C9306C03EE6F601308341E60E
S113150041833283FC01322F40E2332309F442C089
S113151041933150FACF42FF44C0911102C083E09D
S113152001C084E0811718F4212F281B01C020E09A
S113153051110BC0F601822F30E2882319F0319348
S11315408150FBCFC20ED11C20E0992329F0D60193
S11315509C93F60131966F01C6010396E2FE0BC01F
S113156039E4D6013C933EE411963C93119736E45A
S113157012963C9307C039E6F60130833EE6318388
S113158036E63283FC01322F40E2332319F04193D3
S11315903150FBCFFC01E20FF11D10828EEF9FEF63
S11315A0A6C021E030E0911102C020E030E0161620
S11315B017061CF4FB01319602C0E1E0F0E02E0FA7
S11315C03F1FBB2021F0EB2DF0E0319602C0E0E09C
S11315D0F0E02E0F3F1FE12FF0E02E173F071CF421
S11315E0121B212F01C020E08E2D887159F4F601C1
S11315F0822F30E2882319F031938150FBCFC20E41
S1131600D11C20E0992329F0D6019C93F601319650
S11316106F0151110BC0F601822F90E3882319F05A
S113162091938150FBCFC20ED11C20E00F2D060FE9
S11316309A81342F307144FF03C0913309F401506F
S1131640101624F4093018F008E001C001E0AB01E1
S113165077FF02C040E050E0FB01E41BF50BA1E082
S1131660B0E0AC0FBD1FEA0FFB1F8EE2A82E4B01AA
S1131670801A91080B2D10E01195019511094F3F27
S1131680BFEF5B0721F4D601AC9211966D0164178C
S113169075072CF08416950614F4818101C080E34B
S11316A0415051093196D60111967D0140175107D9
S11316B024F0D6018C936701E2CF6417750739F4DF
S11316C0963320F4953319F4311101C081E3F60106
S11316D08083F701822F90E2882319F0919381503F
S11316E0FBCFF701E20FF11D108280E090E0299614
S11316F0ECE06EC1283008F027E03327DA01990FB7
S1131700311D87FD916000966105710539F43260E1
S11317102E5F3D9330E32A95E1F708959F3F30F023
S113172080387105610509F03C5F3C5F3D93913061
S113173008F08068911DDF93CF931F930F93FF925E
S1131740EF92192F987F9695E92F96959695E90F24
S1131750FF27E058FF4F99273327EE24FF24A701E2
S1131760E70105900894079428F4360FE71EF81E45
S1131770491F511D660F771F881F991F0694A1F7F3
S11317800590079428F4E70EF81E491F561FC11D43
S1131790770F881F991F661F0694A1F70590079479
S11317A028F4F80E491F561FC71FD11D880F991F13
S11317B0661F771F0694A1F70590079420F4490F3C
S11317C0561FC71FD81F990F661F771F881F0694BF
S11317D0A9F784911095177041F0D695C795579540
S11317E04795F794E7941A95C1F7E6E2F0E0689418
S11317F01590159135916591959105907FE27395BA
S1131800E118F10A430B560BC90BD009C0F7E10CE0
S1131810F11E431F561FC91FD01D7EF4703311F4EF
S11318208A95E6CFE894015030F0080F0AF40027B7
S1131830021708F4202F2395022F7A3328F079E336
S11318407D932A95E9F710C07D932A9589F606942D
S113185097956795379517951794E118F10A430BF7
S1131860560BC90BD00998F023957E9173957A3362
S113187008F070E37C932013B8F77E9170617D9338
S113188030F0839571E37D9370E32A95E1F7112499
S1131890EF90FF900F911F91CF91DF91992787FDD2
S11318A090950895FC010590615070400110D8F79F
S11318B0809590958E0F9F1F0895FC016150704094
S11318C001900110D8F7809590958E0F9F1F089571
S11318D0FA01AA27283051F1203181F1E8946F935D
S11318E06E7F6E5F7F4F8F4F9F4FAF4FB1E03ED003
S11318F0B4E03CD0670F781F891F9A1FA11D680FA1
S1131900791F8A1F911DA11D6A0F711D811D911DD3
S1131910A11D20D009F468943F912AE0269F112448
S11319203019305D3193DEF6CF010895462F4770AC
S1131930405D4193B3E00FD0C9F7F6CF462F4F7007
S1131940405D4A3318F0495D31FD4052419302D065
S1131950A9F7EACFB4E0A69597958795779567950B
S1131960BA95C9F700976105710508959B01AC010B
S11319700A2E06945795479537952795BA95C9F732
S1131980620F731F841F951FA01D08952F923F920D
S11319904F925F926F927F928F929F92AF92BF927B
S11319A0CF92DF92EF92FF920F931F93CF93DF9327
S11319B0CDB7DEB7CA1BDB0B0FB6F894DEBF0FBE84
S11319C0CDBF09942A88398848885F846E847D84D1
S11319D08C849B84AA84B984C884DF80EE80FD80D3
S11319E00C811B81AA81B981CE0FD11D0FB6F89449
S11119F0DEBF0FBECDBFED010895F894FFCF0A
S11319FE00000002000000006F0200000000000062
S1131A0E000200000000A305000000003F60090072
S1131A1E00C01200008025000040380000004B007A
S1131A2E00807000000096000000E10000002C0110
S1131A3E0000C201004641494C20544F20575249E0
S1131A4E544520434F4D4D414E4420310D004641E7
S1131A5E494C20544F20575249544520434F4D4D25
S1131A6E414E4420320D004641494C20544F2057DC
S1131A7E5249544520434F4D4D414E4420330D00A1
S1131A8E57524954452044415441204641494C45FE
S1131A9E440D0057524F4E4720434841520D002DDE
S1131AAE2D2D2D2D2D2D2D2D2D2D2D2D2D2D2D2D54
S1131ABE0D00202020494E4954205355434345538D
S1131ACE5320200D00494E4954204641494C45446B
S1131ADE2E204572726F7220436F646520257868DC
S1131AEE0D00566F6C74616765203D2025732025AB
S1071AFE630D000070
S9030000FC
